:020000040800F2
:10000000F0590120010300080F0C00085D0A0008E8
:100010000D0C000895090008791600080000000082
:10002000000000000000000000000000490200087D
:10003000AD090008000000009D0200082D0E000818
:100040001B0300081B0300081B0300081B03000818
:100050001B0300081B0300081B0300081B03000808
:100060001B0300081B0300081B0300081B030008F8
:100070001B0300081B0300081B0300081B030008E8
:100080001B0300081B0300081B0300081B030008D8
:100090001B0300081B0300081B0300081B030008C8
:1000A000A50F00081B0300081B0300081B03000822
:1000B0001B0300080D1000081B0300081B030008A9
:1000C0001B0300081B0300081B0300081B03000898
:1000D0001B030008A11400081B0300081B030008F1
:1000E0001B0300081B0300081B0300081B03000878
:1000F0001B0300081B0300081B0300081B03000868
:100100001B0300081B030008511100081B03000813
:100110001B0300081B0300081B0300081B03000847
:100120001B0300081B0300081B0300081B03000837
:100130001B0300081B0300081B0300081B03000827
:100140001B0300081B0300081B0300081B03000817
:100150001B0300081B0300081B0300081B03000807
:100160001B0300081B0300081B0300081B030008F7
:100170001B0300081B0300081B0300081B030008E7
:100180001B0300081B03000800F002F800F04CF805
:100190000AA090E8000C82448344AAF10107DA45E2
:1001A00001D100F041F8AFF2090EBAE80F0013F0E8
:1001B000010F18BFFB1A43F0010318478C380000E9
:1001C000AC380000103A24BF78C878C1FAD852077A
:1001D00024BF30C830C144BF04680C6070470000C1
:1001E0000023002400250026103A28BF78C1FBD840
:1001F000520728BF30C148BF0B60704703681B0A15
:1002000028BF41F08001642900F0E680E42900F075
:100210001F81732900F0F782002070471FB503F09B
:10022000FBFB1FBD10B510BD00F061FB1146FFF7D1
:10023000F5FF01F0B9FA00F07FFB03B4FFF7F2FF1E
:1002400003BC01F01AFA00002A4B19680868B0E8EC
:10025000F04F80F30988BFF36F8F4FF0000080F3F9
:10026000118870470000000006480068006880F3AD
:10027000088862B661B6BFF34F8FBFF36F8F00DFA0
:1002800000BF00BF08ED00E0DFF80C00016841F49A
:1002900070010160704700BF88ED00E0EFF3098056
:1002A000BFF36F8F134B1A681EF0100F08BF20EDBD
:1002B000108A20E9F04F106008B44FF0500080F32E
:1002C0001188BFF34F8FBFF36F8F02F00BFD4FF01C
:1002D000000080F3118808BC19680868B0E8F04F86
:1002E0001EF0100F08BFB0EC108A80F30988BFF32E
:1002F0006F8F704780000020EFF30580704700008B
:100300000948804709480047FEE7FEE7FEE7FEE7A9
:10031000FEE7FEE7FEE7FEE7FEE7FEE704480549E5
:10032000054A064B70470000410E0008890100088D
:10033000F0530120F0590120F0550120F055012023
:10034000704700000FB4044910B503AA029800F0EA
:100350005FFA10BC5DF814FB480000200FB41CB518
:10036000074B06AA7B4469460090059800F021FAE5
:100370000020694600F030FA1CBC5DF814FB000058
:100380007104000070B50C460546012A05D0287896
:10039000800600D5EA69002302E0012305E05B1C2A
:1003A000934202D2E05C0028F9D1A869E618C01A8D
:1003B000A861286A184428622846AFF3008004E048
:1003C000D5E9012114F8010B9047B442F8D328462F
:1003D000AFF3008070BD00002DE9F0410646002417
:1003E00010687529314616A510D0AFF3008000289B
:1003F00002DA404213A507E031688A0701D512A549
:1004000002E0490704D511A5012401E0AFF3008003
:1004100000210A2206F1240709E0B0FBF2FCB0FB40
:10042000F2F302FB1C00303078541846491C0028B7
:10043000F3D123462A463046BDE8F04100F05AB9D0
:10044000000000002D0000002B0000002000000034
:100450002DE9F0418046D21D22F007020025D2E9A5
:100460000002F52915A614D0011E72F1000106DA6A
:100470000023D0EB030063EB020211A608E0D8F8DA
:1004800000108B0701D50FA602E0490701D50EA683
:1004900001251146002408F1240704E000F0E5F8E6
:1004A00030323A55641C50EA0102F7D12B463246ED
:1004B00021464046BDE8F04100F01CB900000000B4
:1004C0002D0000002B000000200000002DE9F0416D
:1004D0000F460546002028622846E968884770B321
:1004E000252805D0D5E901219047286A401CF2E76C
:1004F000E9682846002688476C2804460AD0682CFC
:1005000008D04C2C35D06A2C31D0742C31D07A2CB8
:100510002FD016E0E968064628468847B0420446D0
:1005200008D16C2E23D04FF480662846E9688847AE
:10053000044606E06C2E03D04FF4807601E01EE006
:100540004026E4B1A4F14100192802D8203446F431
:1005500000663A46214628462E60FFF74FFE60B1FE
:10056000012808D0FF1D27F007070837B4E78026C9
:10057000DBE70026D9E73F1DAEE72046B2E7286A51
:10058000BDE8F081032A40F2308010F0030C00F047
:10059000158011F8013BBCF1020F624498BF11F8BD
:1005A00001CB00F8013B38BF11F8013BA2F1040276
:1005B00098BF00F801CB38BF00F8013B11F00303EE
:1005C00000F03881083AC0F0088051F8043B083A3E
:1005D00051F804CBA0E80810F5E7121D5CBF51F8F4
:1005E000043B40F8043BAFF30080D20724BF11F86E
:1005F000013B11F801CB48BF11F8012B24BF00F8D3
:10060000013B00F801CB48BF00F8012B704702F016
:10061000FF0343EA032242EA024200F002B84FF02D
:1006200000020429C0F0128010F0030C00F03681A3
:10063000CCF1040CBCF1020F18BF00F8012BA8BFCD
:1006400020F8022BA1EB0C0100F028B95FEAC17C75
:1006500024BF00F8012B00F8012B48BF00F8012B44
:100660007047704770477047704730B5B0F10A0265
:100670004FEA900E71F100034EEA817EB0EB0E005E
:1006800061EB91014FEA101E4EEA017E10EB0E0065
:1006900041EB11114FEA102E4EEA016E10EB0E00E5
:1006A00041EB11214FEA104E4EEA014E10EB0E00C5
:1006B00041EB1141401841F100014FEAD00040EAFE
:1006C00041704FEAD10110EB80054FEA810444EA02
:1006D000907444EB01046D1944EB0404521BA341D4
:1006E0004FF0000348BF0A3200D530BD401C41F135
:1006F000000130BD2DE9F0470D469946924604466B
:1007000000F124080168880604D5E06921F0100191
:10071000216000E00120A84201DD471B00E0002726
:10072000A1697A1902EB0900081AA0612078C006B5
:1007300002D42046AFF30080002608E0D4E901216E
:100740001AF806009047206A401C761C20624E452D
:10075000F4DB2078C0060AD52046AFF3008006E01F
:10076000D4E9012130209047206A401C2062381EC5
:10077000A7F10107F4DC07E0D4E9012118F805002E
:100780009047206A401C2062281EA5F10105F3DC79
:100790002046AFF300802078000602D50220BDE895
:1007A000F0870120FBE7000001694A1C026108781C
:1007B000704700B58FB0CDE90131002105910549A1
:1007C0007944CDE9031011466846FFF77FFE0FB06C
:1007D00000BD0000E5FFFFFF0A6802F8010B0A6098
:1007E000704710B5436913B1AFF3008001E0FFF724
:1007F000C9FD012010BD127800F124010A70002209
:100800004A700122EDE711684FF0FF32E9E700007E
:10081000074B70B50D467B44FFF7CBFF04462846D7
:1008200000F061F810B14FF0FF3070BD204670BD90
:100830007B0F000010B5203AC0F00B80B1E81850D3
:10084000203AA0E81850B1E81850A0E81850BFF4BA
:10085000F5AF5FEA027C24BFB1E81850A0E8185059
:1008600044BF18C918C0BDE810405FEA827C24BFAD
:1008700051F8043B40F8043B08BF7047D20728BF3B
:1008800031F8023B48BF11F8012B28BF20F8023B8A
:1008900048BF00F8012B70474FF0000200B5134627
:1008A00094469646203922BFA0E80C50A0E80C5090
:1008B000B1F12001BFF4F7AF090728BFA0E80C5041
:1008C00048BF0CC05DF804EB890028BF40F8042B3A
:1008D00008BF704748BF20F8022B11F0804F18BFA7
:1008E00000F8012B7047007B00F0800070477546D0
:1008F00000F02CF8AE4605006946534620F007008C
:10090000854618B020B5FFF709FDBDE820404FF03F
:1009100000064FF000074FF000084FF0000B21F0E9
:100920000701AC46ACE8C009ACE8C009ACE8C009B6
:10093000ACE8C0098D46704710B50446AFF300809F
:100940002046BDE81040FFF778BC00000048704723
:100950008C5301207CB50121202000F095F9012065
:100960008DF8040000208DF8060003208DF80500A6
:100970000220074D4FF480748DF8070000946946FB
:10098000284600F014F82146284600F063F87CBDA4
:1009900000140240FEE70000034800228260C260AB
:1009A0005321312000F04CBB300000207047F0B5DF
:1009B000002201274FF0030C0B6807FA02F52B40C9
:1009C000AB422CD1066853000CFA03F4A643066030
:1009D0000E79D0F800E09E4046EA0E0606600E79D9
:1009E000012E01D0022E12D18668A64386604E7970
:1009F000D0F808E09E4046EA0E0686604668AE43A0
:100A0000466045688E799640B6B235434560C56804
:100A1000A543C560CC799C40C3681C43C460521C8C
:100A2000102AC9D3F0BD4B07DB0E9A40C90810B598
:100A300000EB8100016A0F249C40A1430162016A1E
:100A40001143016210BD0246002012690A4200D023
:100A5000012070474183704701837047FEE7000023
:100A60001CB50121112000F00FF91C20009000207E
:100A70008DF8040003208DF8050001248DF807404F
:100A800069460648FFF793FF02208DF8070000949F
:100A900069460348FFF78BFF1CBD000000100240B1
:100AA000000002402DE9F0412E4C2F4F2F4D012622
:100AB00008B1267001E02078A0B110212846FFF788
:100AC000C2FFB0B108212846FFF7BDFF88B104215D
:100AD0002846FFF7B8FF60B101213846FFF7B3FFA2
:100AE000012806D010212846FFF7ADFF012824D0A9
:100AF00035E00A2000F018FE002020701021284662
:100B0000FFF7A1FF80B108212846FFF79CFF70B1D5
:100B100004212846FFF797FF58B101213846FFF717
:100B200092FF012807D01AE00120BDE8F0810220E1
:100B3000FBE70320F9E70420F7E708212846FFF741
:100B400082FF01280BD104212846FFF77CFF0128F2
:100B500005D101213846FFF776FF00B92670002045
:100B6000E3E70000400000200000024000100240C7
:100B700008B5144D144C4FF0FF362869E0B100233E
:100B80003246694602F0D8F9B0B19DF8000001285C
:100B900012D003280AD004280ED1D4F8A80218B124
:100BA0000020C4F8A80207E00120FAE7D4F8A00268
:100BB00030B10020C4F8A0020A2001F0DFFEDCE71B
:100BC0000120F7E700000020008042427CB50121AF
:100BD000202000F059F801208DF8040000228DF843
:100BE000062003218DF80510074D4FF4C0648DF8E1
:100BF0000700009469462846FFF7D9FE214628469B
:100C0000FFF72AFF7CBD000000140240FEE770479A
:100C100030B50F23C27801780125FAB1144A126861
:100C200001F1E02102F4E062C2F5E062C2F30722C2
:100C3000C2F10404D3404278A24084781C4014439B
:100C4000220181F80024007800F01F018D40400946
:100C5000800000F1E020C0F8005130BD01F01F001D
:100C600085404809800000F1E020C0F8805130BD87
:100C70000CED00E00249084302490860704700009B
:100C80000000FA050CED00E0044A0029116801D0CB
:100C9000014300E08143116070470000303802409A
:100CA000044A0029116801D0014300E0814311602A
:100CB0007047000040380240044A0029116801D002
:100CC000014300E081431160704700004438024056
:100CD00070B5204B1968204C11F00C0104D066103F
:100CE000042903D0082903D004601BE0066019E042
:100CF000184A121F1168C1F38055116801F03F01B5
:100D000015B1B6FBF1F101E0B4FBF1F11468126822
:100D1000C4F388146143C2F30142521C5200B1FB78
:100D2000F2F1016019680F2202EA11110B4A545CBA
:100D30000168E14041601C68072505EA9424145DC0
:100D400021FA04F484601B6805EA5333D25CD14075
:100D5000C16070BD083802400024F4004C0000203F
:100D60000CB50022274900920192086840F48030B7
:100D700008604FF4A043086800F400300190009828
:100D8000401C0090019810B900989842F3D108686F
:100D9000800334D5012001901A484030026842F0A7
:100DA000805202601848026842F4404202601548CE
:100DB000083002680260026842F400420260026881
:100DC00042F4A0520260031F104A1A600A6842F0FF
:100DD00080720A600A689201FCD50D4940F20572E2
:100DE0000A60016821F003010160016841F002011D
:100DF00001600168C1F381010229FAD10CBD0192A1
:100E00000CBD00000038024000700040085440074C
:100E1000003C02404FF0E0210428086903D020F094
:100E200004000861704740F00400FAE710B502F0D2
:100E300097FB012803D0BDE8104002F02BB810BD8D
:100E4000124810B5016841F4700101601048016852
:100E500041F0010101600E4A002108321160026870
:100E60000C4B1A400260031D0B4A1A60026822F400
:100E70008022026006480C300160FFF771FF0349D1
:100E80004FF000608039086010BD000088ED00E080
:100E900000380240FFFFF6FE1030002470B5048CCD
:100EA00024F001040484058B048C4FF6FF7606EAD7
:100EB0000313134325F0F3052B4324F00A020A43DE
:100EC00042F001010383018470BDF0B5048C24F06D
:100ED00010040484078B068C4FF6FF7404EA011596
:100EE00027F4734704EA0331394304EA02220A4330
:100EF00026F0A001294341F0100102830184F0BDD6
:100F00002DE9F0438846012181460C028BB0204632
:100F1000FFF7C6FE01212020FFF7B6FE1F4E092273
:100F200011463046FFF77FFD02258DF8185003204B
:100F300005948DF8190000248DF81A4001278DF8CA
:100F40001B7005A93046FFF732FD154EADF81C8029
:100F5000ADF81E40CDF82090ADF8244007A93046EA
:100F600000F060FA6020ADF80000ADF80270ADF856
:100F70000C5069463046029400F0E8F908213046EA
:100F800000F01AFA0121304600F05CF901213046E8
:100F900000F065F90BB0BDE8F083000000140240DA
:100FA00000200040F8B50020154D00900121284692
:100FB00000F061F901281ED13221002000F0EAFC86
:100FC000104C0646206840B132213046FFF727FB1F
:100FD0006A463146206802F0F9F93146002000F0F7
:100FE000CDFC009838B108494FF080500860BFF33D
:100FF0004F8FBFF36F8F0121284600F02DF9F8BD08
:10100000004001401400002004ED00E010B50A4C3F
:101010000121204600F02FF9012807D107498A68ED
:10102000C868521C40F100008A60C8602046BDE8D4
:101030001040012100F010B90004004030000020F1
:101040007FB50D46044601210220FFF729FE0194D9
:10105000ADF800500024104DADF80240ADF8084046
:101060006946284600F0DEF901221146284600F0C4
:1010700064F90121284600F0F2F81D208DF80C00DB
:1010800001208DF80D008DF80E408DF80F0003A89B
:10109000FFF7BEFD7FBD0000000400402DE9F043D6
:1010A0008846814687B001210820FFF7F9FD01211C
:1010B0000846FFF7E9FD02268DF8046003208DF84D
:1010C000050000241F4F01258DF8064000958DF87E
:1010D000076069463846FFF76AFC0222002138465D
:1010E000FFF7A1FC184FADF80880ADF80A40CDF825
:1010F0000C90ADF8104002A9384600F093F913485F
:101100000146048044808580C4800481384600F014
:10111000BEF801220321384600F00FF901213846BC
:1011200000F09DF832208DF814008DF815608DF8D0
:1011300016408DF8175005A8FFF76AFD07B0BDE807
:10114000F083000000000240000C0040FC00002082
:1011500070B5234C234D207800063BD4012128464E
:1011600000F089F838B12178480604D5C8438006D4
:1011700015D0491C21700221284600F07CF848B3A4
:101180002178480612D541F080002070284600F0F2
:1011900070F860600021284600F008F91AE041F07C
:1011A000800020704FF0FF306060E4E70020606056
:1011B000402020700021284600F051F800212846E8
:1011C00000F006F90221284600F0F0F80121284637
:1011D00000F045F82846BDE87040032100F03CB817
:1011E00030000020000C00407FB50D460446012170
:1011F0000804FFF761FD0194ADF800500024104D84
:10120000ADF80240ADF808406946284600F00AF9FA
:1012100001221146284600F090F80121284600F0EE
:101220001EF818208DF80C0008208DF80D008DF8A0
:101230000E4001208DF80F0003A8FFF7E9FC7FBDE9
:10124000004001400029018802D041F0800101E006
:1012500021F0800101807047C94301827047002955
:10126000018802D041F0010101E021F0010101807B
:101270007047406B704702460020138A92890B42E8
:1012800002EA010202D0002A00D0012070472DE9B5
:10129000F0410C460E884988A2882389054616B37A
:1012A000042E28D0082E2E8C4FF6FF702BD026F45B
:1012B00080562E84AF8B2E8C00EA022200EA013188
:1012C00027F473473A4300EA0330104326F42042E0
:1012D0000A4342F48051A8832984E1882846BDE866
:1012E000F04100F093B8FFF7D9FDE1882846BDE84A
:1012F000F04100F06FB8FFF7E8FDE1882846BDE84F
:10130000F04100F06FB826F480762E84AF8B2E8CDF
:1013100000EA012100EA0310104327F0F3073843E5
:1013200026F420620A4342F48071A8832984E1886C
:101330002846BDE8F04100F061B8002A828901D05A
:101340000A4300E08A4382817047000030B5028C76
:1013500022F001020284028C8388048B22F00202B4
:1013600024F073050C882C438D8915434A882A4341
:101370000C4DA84202D00C4DA8420DD122F0080518
:10138000CA8923F440732A4322F004058A882A4339
:101390000D8A1D434B8A2B438380048389684163F4
:1013A000028430BD0000014000040140028C22F0A4
:1013B00002020A4302847047028B4FF6FF7322F445
:1013C000006203EA012111430183704741637047C2
:1013D00041627047028B22F00C020283028B0A43A7
:1013E00002837047028B22F440620283028B4FF625
:1013F000FF7303EA01210A4302837047828B22F0C4
:101400000C028283828B0A4382837047828B22F490
:1014100040628283828B4FF6FF7303EA01210A4305
:101420008283704730B50288164C174DA0420DD00C
:10143000A8420BD0B0F1804F08D0144B984205D091
:10144000134B984202D0134B984203D122F0700301
:101450004A881A43104B984206D0104B984203D04A
:1014600022F440730A891A4302804A68C2620A88D9
:101470000285A04201D0A84201D1897A01860121CA
:10148000818230BD000001400004014000040040A2
:1014900000080040000C0040001000400014004014
:1014A000F8B5224E40F22551304600F053F8204C5A
:1014B0000025C8B1304600F0DBF8C1B22088020434
:1014C00015D4420404D50A290DD140F400402AE085
:1014D0000D2926D0C0F30D02164B401C80B2995442
:1014E0002080312800D925802088000418D5124892
:1014F0000068002814D000236A460E4901F0F6FE69
:10150000258032210B48FFF78AF80098002807D081
:101510000A494FF080500860BFF34F8FBFF36F8FC1
:10152000F8BD40F480402080DEE70000001001405C
:1015300046000020060100201400002004ED00E019
:101540000029818902D041F4005101E021F40051C9
:101550008181704770B501F01F0501260024C1F399
:10156000421306FA05F2012B0FD0022B0FD0838A0B
:101570004FEA11210088134206FA01F600EA06003C
:1015800001D000B10124204670BD8389F0E7038AB1
:10159000EEE710B5C1F3421301F01F040121A14091
:1015A000012B07D0022B07D01430002A026805D087
:1015B0000A4304E00C30F8E71030F6E78A43026093
:1015C00010BD00007FB50446008A0D46C98820F48E
:1015D000405001432182A08941F20C618843A988CF
:1015E0002A8911436A8902431143A181A08A20F408
:1015F0004071A8890843A0826846FFF769FB1A4832
:10160000844202D01948844201D1039800E0029834
:10161000A189090400EBC00101EB0010296801D584
:10162000490000E08900B0FBF1F06422B0FBF2F168
:1016300009010B096FF018056B4300EB8300A389C8
:101640001D044FF0320306D503EBC000B0FBF2F0EF
:1016500000F0070005E003EB0010B0FBF2F000F033
:101660000F00084320817FBD00100140001401409D
:101670008088C0F308007047FEE7704770B501F03E
:1016800037F8124C606900F0DDFFC5B2606900F008
:10169000B7FF0646606900F0D5FF3044C4B214219C
:1016A000002000F077F90646224609A1FEF756FE13
:1016B0002A460BA13046FEF751FE3146002000F0CD
:1016C0005DF9BDE8704001F04FB800000000002057
:1016D000546F74616C2053697A653A256400000088
:1016E00052656D61696E2053697A653A2564000020
:1016F00010B504460420FFF78DFB0A484FF47A71B9
:10170000047014FB01F1012242804FF0E0200269D5
:1017100042F0020202614161016941F0010101618F
:1017200010BD00004200002070B5044601F018FF13
:1017300001280CD0094D6888844203D3B4FBF0F033
:1017400001F01CF96888B4FBF0F100FB11444FF480
:101750007A706043BDE8704000F002B8420000209B
:1017600070B54FF0E02500216C69094AAB69127829
:101770005043AA699A42FCD002D2A3EB020302E0D2
:10178000A4EB02063344194413468142F1D370BDE1
:101790004200002003490A885206FCD5C2B28A8062
:1017A00070470000001001401CB54FF44070FFF777
:1017B00061FAA820FFF79CFF4FF4E13000F0B8FE7B
:1017C000FFF704FAFFF74CF9FFF7C4F853214FF085
:1017D000FF30FFF763FC44F29F1141F28830FFF7BE
:1017E00003FD532140F2F310FFF78AFB002000F0C5
:1017F00045F807490120CDE900010202002305A1B7
:10180000074801F081FE01F019FA00201CBD00001C
:101810000000002073746172745F7461736B000068
:101820007D23000870B5134A131893F8203093B144
:10183000114B53F820308B421AD90F4B02EB800228
:101840000C3B53F820305069B1FBF3F130F81140F4
:101850000020034608E011688847012070BD5569E3
:101860000E18401C25F81630A042F8DB002070BD91
:10187000022070BD5C0000203C3A000870B50446B0
:101880000B480C4E002150F8240006EB8405420062
:10189000686900F08FF806480021183050F82420BD
:1018A000A86800F087F80120311981F8200070BD88
:1018B000243A00085C0000202DE9F0411F4E054647
:1018C000002470190F4690F8200010B9316828469E
:1018D00088474FF0FF327FB3194B53F82510B7FB01
:1018E000F1F0B7FBF1FC01FB1C7101B1401C144984
:1018F0000C3951F82510491E1ED406EB8506776970
:1019000037F811C0BCF1000F05D00024844211D17A
:10191000002284B207E0641CF8E7776901EB020C4F
:10192000521C27F81C408242F7D353F82500484345
:10193000BDE8F081491EE3D51046F9E75C000020C0
:10194000303A000810B50B4B0B4C002253F82030F6
:10195000114604EB800005E0446934F8114004B1FD
:10196000521C491C8B42F7D864204243B2FBF3F06F
:10197000C0B210BD243A00085C000020002906D047
:10198000034A02EB80029268891AFFF74BBF704747
:101990005C00002010B50446FFF78EFF411C05D007
:1019A000034901EB84018968084410BD002010BD83
:1019B0005C00002001E000F8011B521EFBD27047C2
:1019C0002DE9F041184E0F460446F5683068001DB9
:1019D00000F004FE38B9306890F82C1001208840DF
:1019E000316981433161601C07D137B13168BDE88D
:1019F000F0410E48091D00F06FBE30682C44AC4227
:101A00004460316805D2306CBDE8F041091D00F03A
:101A10004BBEF06B091D00F047FEB06A844200D255
:101A2000B462BDE8F0810000800000205003012076
:101A30002DE9F041054600F05BFE2D4EB068401CDC
:101A4000B06030682B4F10B1706930B32BE0356057
:101A5000B068012827D1002404EB840007EB800044
:101A600000F014FE641C202CF6D3234800F00EFE78
:101A70002148143000F00AFE1F48283000F006FE0E
:101A80001D483C3000F002FE1B48503000F0FEFDC7
:101A90001948F0631430306405E03068E96AC06AC0
:101AA000884200D83560706A0121401C7062A864C9
:101AB000E86A326981401143316100EB800007EB35
:101AC0008000291D00F008FE00F04EFE706900281D
:101AD0000CD03068E96AC06A884207D207494FF0E3
:101AE00080500860BFF34F8FBFF36F8FBDE8F08168
:101AF00080000020800001200003012004ED00E0B0
:101B000010B500F0F5FD0E4C2068A0B90D4800F0AE
:101B1000BDFD0C48143000F0B9FD0A48E0601430F7
:101B2000206100221021052001F0CAF9206010B1C7
:101B300005A100F0EFFEBDE8104000F015BE00006A
:101B4000C400002064030120546D725100000000A5
:101B500070B5124E124D1CE001F0BCF8306820B197
:101B6000002401F02BFEA4B901E00124F9E700F004
:101B7000BFFDF068C468201D00F030FDA868401E5D
:101B8000A8606868401E686000F0EEFD204600F026
:101B900052F868680028DFD170BD00003C030120C6
:101BA0008000002030B4026C0B46002A0BD0C168C4
:101BB0001144C1604468A14201D30168C16030BCD6
:101BC0001846FEF7DFBC30BC70472DE9F041856B4D
:101BD000174604460026026C82B1C7B1E068FEF7E2
:101BE000D1FCE168206C091AE1602268914202D2BE
:101BF0006168081AE060022F16D017E02068A8B9C3
:101C0000606801F035FD0646002060600EE0A068C7
:101C1000FEF7B8FC216CA0680844A06061688842A7
:101C200004D32068A06001E005B16D1E6D1CA563A2
:101C30003046BDE8F08110B50446006B00F0C6FDEB
:101C40002046BDE8104000F0C1BD000010484FF430
:101C5000A041420706D0C01D0D4920F00700411ADF
:101C6000C1F5A0410B4A00230144C2E90003083931
:101C7000103A21F0070111604B600B600B1AC0E9AC
:101C8000001393604FF000405360D0607047000035
:101C90008C030120F4000020074E4FF08054074DC4
:101CA000FFF756FF30680128FAD92C60BFF34F8F39
:101CB000BFF36F8FF4E700008000012004ED00E027
:101CC0002DE9F047DDE909840E461746824691006A
:101CD0009946089DA522206BFEF799FC6FF0030141
:101CE000206B01EB8701084420F00707780705D037
:101CF00040F22B3219A11EA0FEF724FB002022186F
:101D0000315C82F83410315C11B1401C1428F6D3D8
:101D1000002684F84760202D00D31F25E562C4E922
:101D20001456201D00F0BDFC04F1180000F0B9FCB1
:101D30002461C5F120006462A061A665E66584F8AF
:101D400060604A465146384600F002FB2060B8F118
:101D5000000F01D0C8F80040BDE8F0872E2E5C4689
:101D600072656552544F535C7461736B732E6300DC
:101D70004572726F723A25732C25640D0A000000BB
:101D800030B5114900E011460A688242FBD34B6826
:101D90005C18844203D14068184448600846436890
:101DA0001C18944209D1084C103C2468A24209D066
:101DB00052681A4442600A6812680260814200D088
:101DC000086030BD0460F9E7F400002070B500241D
:101DD00041600B4D0061914206D8D11A826991424F
:101DE00006D2011D286907E09A4203D2994201D325
:101DF000012403E0011DE86800F056FC204670BD98
:101E0000C400002010B5044600F072FCA06B20B1A5
:101E1000002400F0A9FC204610BD0124F9E70000D1
:101E20002DE9F34100980F460026846C2CB940F64A
:101E3000CE1216A11AA0FEF785FAA06BE16B8842BC
:101E400005D340F6CF1211A115A0FEF77BFAA06BC7
:101E5000E16B88420CD294F945503A4669462046D7
:101E6000FFF7B3FE0646681C05D06D1C84F845508C
:101E70003046BDE8FC81606A0028F9D004F12400F6
:101E800001F050FC0028F3D00126F1E72E2E5C462D
:101E900072656552544F535C71756575652E6300AC
:101EA0004572726F723A25732C25640D0A0000008A
:101EB000F8B5054614480E46C068C068C468201DC1
:101EC00000F08CFBE069012817D1A0692B4641196D
:101ED00032462046FFF77AFF78B1002003460146DC
:101EE00000902A46204601F04FFD30B907494FF4D3
:101EF000027201F11800FEF725FA616A01B020466E
:101F0000BDE8F04008470000C4000020EC3800089D
:101F100070B586B02F4E53E00198002806DADDE94F
:101F20000301029A90470198002849DB039C6069ED
:101F300010B1201D00F052FB05A800F0A7F80546DF
:101F400001980A283CD2DFE800F00505053B273858
:101F500005053B270298A169034601442A4620460D
:101F6000FFF734FF00282BD0616A20468847E069DC
:101F7000012825D1002000900298A1690023421871
:101F80001946204601F000FDD0B940F2213212A1DD
:101F900017A0FEF7D7F913E00298A06128B94FF413
:101FA0004E720DA112A0FEF7CDF9A0692B46411982
:101FB0001A462046FFF70AFF02E0204600F006FC22
:101FC00000231A4601A9306800F0B6FF0028A3D10B
:101FD00006B070BDC40000202E2E5C4672656552AE
:101FE000544F535C74696D6572732E63000000007A
:101FF0004572726F723A25732C25640D0A00000039
:10200000F8B50D46064600F065FE684600F03EF85D
:102010000446009810B101F0D1FBF8BD1148ADB1F4
:1020200001690968D9B10025311B2A46006800F012
:1020300083FC01F0C3FB0028EFD10B494FF0805027
:102040000860BFF34F8FBFF36F8FF8BDA642EBD888
:1020500001F0B4FB21463046FFF72AFFF8BD012509
:10206000E2E70000C400002004ED00E00648C16B78
:10207000096829B1C16BC968C9684968816270473C
:102080004FF0FF31FAE700008000002070B50546F0
:1020900001F074FA064E0446B068844203D200F0A0
:1020A00009F8012000E0002028602046B46070BDDF
:1020B000C4000020F8B5184E26E0C068C468056862
:1020C000201D00F08BFA616A20468847E0690128EC
:1020D0001AD1A0692844A84206D924616060211D54
:1020E000F06800F0E1FA0FE000200346014600909E
:1020F0002A46204601F048FC30B9084940F29232A5
:1021000001F11800FEF71EF9F06801680029D4D12A
:102110003169C6E90310F8BDC4000020EC3800089E
:1021200008484068401C05D040F20F1206A111A0DB
:10213000FEF708F9502080F31188BFF34F8FBFF3EB
:102140006F8FFEE7D80000202E2E5C467265655228
:10215000544F535C706F727461626C655C5256448C
:10216000535C41524D5F434D34465C706F72742E28
:10217000630000004572726F723A25732C25640D5E
:102180000A000000084CE068016839B1002139B14B
:102190000020FFF735FFFFF7BBFEF4E70121F6E76C
:1021A000C0680068F5E70000C40000202DE9F04198
:1021B000044600F09DFA94F9455004F1240610E01D
:1021C000A06C20B100212046FFF72AFE04E0606ADF
:1021D00048B1304601F0A6FA08B100F06BFC6D1E64
:1021E0006DB2002DECDC4FF0FF3684F8456000F056
:1021F000BBFA00F07DFA94F9445004F1100709E0AD
:10220000206948B1384601F08DFA08B100F052FC5F
:102210006D1E6DB2002DF3DC84F84460BDE8F04122
:1022200000F0A2BA2DE9F0410546002600F052FD6B
:10223000324F386808B9FFF709FDF86805424FD1F9
:10224000002D4DD0083568070BD005F00700C0F110
:1022500008000544680704D0BF2229A132A0FEF778
:1022600071F8002D3CD07868854239D82349103167
:102270000846046801E0214604466068A84202D28C
:1022800020680028F7D13868B846844228D00E6804
:102290002068086060680836401B10280ED967194E
:1022A000780704D0EC2216A11FA0FEF74BF8606857
:1022B000401B786038466560FFF762FD6168D8F8BA
:1022C00004004246401AC8F80400D8F80830984282
:1022D00000D29060D8F80C0001430020C4E900014E
:1022E00001F06CFA700705D04FF4967204A10EA0AD
:1022F000FEF728F83046BDE8F0810000E400002039
:102300002E2E5C4672656552544F535C706F72742A
:1023100061626C655C4D656D4D616E675C686561A1
:10232000705F342E630000004572726F723A25733D
:102330002C25640D0A0000000449086818B10868DB
:10234000426D521C42650868704700008000002002
:1023500010B5031F4FF080741C601B1F21F001019A
:102360001960191F044B0B6014390A60091F6FF0C4
:10237000020244380A6010BD212100087CB500F03B
:10238000B7F901210022084600F09AFD174C0022FF
:1023900032212061042000F093FD02256061201DA0
:1023A000CDE90050EE010023324611A1134801F09F
:1023B000ABF804F10800CDE900500023324610A12B
:1023C000124801F0A1F804F10C010320CDE900014D
:1023D000002332460EA1124801F096F8206800F062
:1023E00003FBBDE87C4000F0BFB900000000002006
:1023F0007461736B315F7461736B00002524000896
:102400007461736B325F7461736B0000B5240008F4
:102410006B657970726F636573735F7461736B0062
:10242000710B000808B50024174E184D0A2700202C
:10243000FEF738FB8DF80000D6F810C0BCF1000F95
:102440000AD048B100230A226946604600F08AFE9D
:1024500010B90FA0FDF776FF641CE4B2B4FBF7F0EF
:1024600007FB104008B9FFF709F9322C06D1D5F85F
:10247000A402002430B10020C5F8A4020A2000F014
:102480007DFAD4E70120F7E70000002000804242F7
:10249000B6D3C1D04B65795F5175657565D2D1C230
:1024A000FAA3ACCAFDBEDDB7A2CBCDCAA7B0DC2172
:1024B0000D0A00004FF49677164E174D0A20FFF7CD
:1024C00033F93046FEF7D5FE411C3046FEF77EFF5D
:1024D0003046FEF7CEFEB84203D100213046FEF76B
:1024E00075FF28780106E9D500F03F014FF0FF3273
:1024F000A1FB020CCB0F03FB02C2002401FB04234F
:10250000064909684218634105A0FDF71BFF2C70BE
:10251000D4E70000002000403000002034000020FC
:10252000484947483A256C6C642075730D0A0000D1
:10253000F0B50746012187B00846FEF7A5FB01214B
:102540001020FEF7B9FB234E072209213046FEF783
:102550006AFA07220A213046FEF765FA4FF4C06096
:10256000049002208DF814008DF8150000248DF8D9
:10257000164001258DF8175004A93046FEF717FACA
:10258000ADF808400C20144EADF80440ADF80A0038
:102590000097ADF80640ADF80C4069463046FFF7AD
:1025A00011F801213046FEF7CBFF012240F2255100
:1025B0003046FEF7EEFF25208DF8180007208DF835
:1025C00019008DF81A408DF81B5006A8FEF720FB65
:1025D00007B0F0BD0000024000100140D0E9013218
:1025E00001699A60D0E901235A604A68824201D1A8
:1025F00082684A60002202610868401E08607047D5
:1026000010B5040005D140F22F6205A109A0FDF725
:1026100099FE00F06DF8A46B00F0A6F8204610BDFE
:102620002E2E5C4672656552544F535C717565750C
:10263000652E63004572726F723A25732C25640D06
:102640000A00000010B5040005D140F2416206A165
:102650000AA0FDF777FE00F04BF8D4E90E10441AFB
:1026600000F082F8204610BD2E2E5C467265655241
:10267000544F535C71756575652E63004572726FBA
:10268000723A25732C25640D0A00000000F1080140
:102690004FF0FF32C0E90112C16001610021016009
:1026A000704700210161704730B50C68621C02D090
:1026B00000F1080202E0026904E01A4653681D684E
:1026C000A542FAD953684B6099608A6051600861ED
:1026D0000168491C016030BD42684A6093688B60A4
:1026E00093685960916008610168491C01607047F6
:1026F000502080F31188BFF34F8FBFF36F8F0949CC
:102700004868401C486001280AD10748006810F05A
:10271000FF0F05D040F2B91204A10FA0FDF712BEC1
:1027200070470000D800002004ED00E02E2E5C462B
:1027300072656552544F535C706F727461626C6560
:102740005C525644535C41524D5F434D34465C707D
:102750006F72742E630000004572726F723A2573B7
:102760002C25640D0A00000010B5084C606828B9DB
:102770004FF4E07206A111A0FDF7E4FD6068401E71
:10278000606001D180F3118810BD0000D8000020E6
:102790002E2E5C4672656552544F535C706F727496
:1027A00061626C655C525644535C41524D5F434DCF
:1027B00034465C706F72742E630000004572726F55
:1027C000723A25732C25640D0A00000070B50028AC
:1027D0002AD0164DA0F108046068E968084205D1C6
:1027E0004FF4A07212A11CA0FDF7ACFD206828B127
:1027F00040F241120EA118A0FDF7A4FD6068E9683F
:10280000084211D02268002A0ED18843606000F08F
:1028100061FA60686968084468602046FFF7B0FAAA
:10282000BDE8704000F0CABF70BD0000E4000020A9
:102830002E2E5C4672656552544F535C706F7274F5
:1028400061626C655C4D656D4D616E675C6865616C
:10285000705F342E630000004572726F723A257308
:102860002C25640D0A00000006484FF47A710068B8
:10287000B0FBF1F14FF0E020491E416107210161F9
:10288000704700001800002010B5FDF735FD104C12
:1028900010280CD300F1E02090F8F0032178884252
:1028A00005D24FF440720BA115A0FDF74BFD18485F
:1028B0000068A16800F4E060884207D9BDE81040D4
:1028C0004FF4447203A10EA0FDF73CBD10BD000003
:1028D000D80000202E2E5C4672656552544F535C22
:1028E000706F727461626C655C525644535C415205
:1028F0004D5F434D34465C706F72742E6300000070
:102900004572726F723A25732C25640D0A0000001F
:102910000CED00E010B5074B002253F832401CB11B
:10292000521C082AF9D310BD43F8321003EBC20140
:10293000486010BD4000012070B515460E460446A3
:10294000FFF7D6FE94F944100020491C01D184F809
:10295000440094F94510491C01D184F84500FFF763
:1029600003FFA06B28B92A46314604F1240000F089
:10297000D1F82046BDE87040FFF718BC10B5040040
:1029800012D00E49096B29B140F2CF420CA111A01F
:10299000FDF7D8FC00F09EF900212046FFF710F863
:1029A00000F00CFF002807D10E494FF0805008605E
:1029B000BFF34F8FBFF36F8F10BD0000800000206A
:1029C0002E2E5C4672656552544F535C7461736B76
:1029D000732E63004572726F723A25732C25640D55
:1029E0000A00000004ED00E070B50446FFF780FE29
:1029F000234D04B92C68201DFFF7F0FD58B9E06A9B
:102A0000204A00EB800152F8211021B901218140B8
:102A1000286988432861A06A18B104F11800FFF7FB
:102A2000DDFD686A401C68622868844207D1211D68
:102A30001548FFF751FE6868401C686007E0A86809
:102A4000401EA8602046FFF7F6F8FFF70FFBFFF7E0
:102A50008BFE6869002812D0286884420FD1286B49
:102A600028B140F2654209A10DA0FDF76BFC1049A9
:102A70004FF080500860BFF34F8FBFF36F8F70BD72
:102A800080000020800001203C0301202E2E5C46A7
:102A900072656552544F535C7461736B732E63009F
:102AA0004572726F723A25732C25640D0A0000007E
:102AB00004ED00E001490120C8617047800000205A
:102AC00070B50D46040005D140F6063207A10CA0F2
:102AD000FDF738FC0E48016820461831FFF7E4FD89
:102AE0002846BDE870400121FEF76ABF2E2E5C46E5
:102AF00072656552544F535C7461736B732E63003F
:102B00004572726F723A25732C25640D0A0000001D
:102B10008000002070B514460E46050005D140F631
:102B2000313209A10DA0FDF70DFC104801682846BF
:102B30001831FFF7D1FD0CB14FF0FF36214630467A
:102B4000BDE87040FEF73CBF2E2E5C4672656552B4
:102B5000544F535C7461736B732E63004572726FD4
:102B6000723A25732C25640D0A00000080000020B5
:102B700070B5040039D01D4DE06A2968C96A8842E1
:102B800033D2A069002804DB2868C06AC0F12000A5
:102B9000A061E06A164E00EB8000616906EB8000E0
:102BA00081421FD1201DFFF719FD012150B9E06AB4
:102BB00000EB800256F8222022B92A6901FA00F0BF
:102BC00082432A612868C06AE0622A698140114311
:102BD000296100EB800006EB8000211DBDE87040FC
:102BE000FFF77ABD2868C06AE06270BD80000020EF
:102BF0008000012010B5040005D140F6C13205A1C6
:102C000009A0FDF79FFB0C48016A2160C068606065
:102C100010BD00002E2E5C4672656552544F535C09
:102C20007461736B732E63004572726F723A257311
:102C30002C25640D0A000000800000201CB51848F7
:102C40000024CDE900402346822216A1174800F057
:102C50005BFC012803D100F05DFE01280AD0401C76
:102C60001DD102B040F28472BDE8104010A115A041
:102C7000FDF768BB502080F31188BFF34F8FBFF37F
:102C80006F8F07484FF0FF312C388162012141617D
:102C9000C460FDF781FEBDE81C4000F071B81CBDAA
:102CA000AC00002049444C4500000000991C00087D
:102CB0002E2E5C4672656552544F535C7461736B83
:102CC000732E63004572726F723A25732C25640D62
:102CD0000A0000000248016B491C016370470000B4
:102CE0008000002070B51A4C206B10B10120E0610B
:102CF00070BD0020E061174908684968A063626BF5
:102D0000904204D92168821A8B6D1A448A656063E7
:102D10002069114EB0FA80F0C0F11F0000EB800571
:102D200056F8250028B940F6F6220CA110A0FDF7B0
:102D300009FB06EB850000F1080241684968416023
:102D4000914201D149684160C868206070BD0000AF
:102D50008000002038000020800001202E2E5C46DC
:102D600072656552544F535C7461736B732E6300CC
:102D70004572726F723A25732C25640D0A000000AB
:102D80001CB5304C20683049884205D140F25912B8
:102D90002EA139A0FDF7D6FA20682B49491E88429A
:102DA00005D14FF4AD7229A133A0FDF7CBFA364C13
:102DB00020780190FF20207020788DF800009DF889
:102DC00000009DF8001000F0F000884205D040F2AD
:102DD00073121EA128A0FDF7B5FA9DF800002B4A3A
:102DE00000F0500010700720906007E09068401ECF
:102DF00090609DF8000040008DF800009DF80000F4
:102E00000006F3D4107A000200F4E06090600198AC
:102E100020700C482030016841F4700101600168A5
:102E200041F070410160FFF71FFD00205060FDF789
:102E30002BFA1748016841F040410160FDF714FA90
:102E400000201CBD00ED00E071C20F412E2E5C463B
:102E500072656552544F535C706F727461626C6539
:102E60005C525644535C41524D5F434D34465C7056
:102E70006F72742E630000004572726F723A257390
:102E80002C25640D0A00000000E400E0D8000020BA
:102E900034EF00E010B5502080F31188BFF34F8F5E
:102EA000BFF36F8F00F070FB18B104494FF08050F2
:102EB0000860002080F3118810BD000004ED00E0E0
:102EC0002DE9F04117460E46050005D14FF4C472B6
:102ED00010A115A0FDF736FABEB105FB06F054307F
:102EE000FFF7A0F904000ED004F154007EB1206079
:102EF000C4E90F562046012100F0E0F884F8507034
:102F000000212046A164BDE8F0810020E7E72460AD
:102F1000EEE700002E2E5C4672656552544F535CFE
:102F200071756575652E63004572726F723A25730F
:102F30002C25640D0A0000002DE9FF4F83B09B464D
:102F40008A4604004FF0000605D140F2DC4251A150
:102F500055A0FDF7F7F9BAF1000F07D1206C28B1A1
:102F600040F2DD424BA150A0FDF7ECF900F0F8FA79
:102F700038B9059828B14FF49C6246A14AA0FDF7E4
:102F8000E1F94FF000094FF08057DFF82C81FFF78F
:102F9000AFFBA56B45B351462046E668FEF702FE3F
:102FA000BBF1000F13D0E660606A50B104F1240059
:102FB00000F0B8FB28B1C8F80070BFF34F8FBFF323
:102FC0006F8FFFF7D1FB012007B0BDE8F08F6D1EBA
:102FD000A563206810B9FFF7AFF960602069002889
:102FE000EFD004F11000E3E7059808B11EB106E048
:102FF000FFF7BAFB27E06846FFF7FCFD0126FFF765
:10300000B3FBFFF767FEFFF773FB94F94400401C26
:1030100001D184F8449094F94500401C01D184F812
:103020004590FFF7A1FB05A9684600F029FA0028A2
:1030300020460AD0FFF7BAF800F0C0FB2046FEF7A2
:10304000E1FE0028A3D00020BEE7FEF7DBFED8B1EA
:10305000206830B9FFF74CFB6068FFF789FDFFF788
:1030600083FB04F124000599FFF72AFD2046FFF7B2
:103070009DF800F0A3FB002889D1C8F80070BFF3C9
:103080004F8FBFF36F8F82E72046FFF78FF800F076
:1030900095FB7CE72E2E5C4672656552544F535C5F
:1030A00071756575652E63004572726F723A25738E
:1030B0002C25640D0A00000004ED00E070B50D46FB
:1030C000040005D140F21B121CA121A0FDF73AF922
:1030D000FFF70EFBD4E90F20216802FB00116160AD
:1030E0000021A1632168A1600A46D4E90F01401EB6
:1030F00000FB0121E16021464FF0FF3001F8440F51
:10310000487004F110004DB1FFF7C0FA04F124003B
:10311000FFF7BCFAFFF728FB012070BD21690029E9
:10312000F8D000F0FFFA0028F4D00D494FF080509D
:103130000860BFF34F8FBFF36F8FEBE72E2E5C4617
:1031400072656552544F535C71756575652E6300E9
:103150004572726F723A25732C25640D0A000000C7
:1031600004ED00E02DE9FF4F83B099468B46040043
:103170004FF0000605D140F2D92252A156A0FDF72A
:10318000E1F8BBF1000F07D1206C28B140F2DA2240
:103190004CA151A0FDF7D6F8B9F1020F08D1E06BB0
:1031A000012805D040F2DB2246A14BA0FDF7CAF86A
:1031B00000F0D6F938B9059828B140F2DE2241A1D5
:1031C00045A0FDF7BFF84FF0000A4FF08057DFF839
:1031D0001881FFF78DFAA06BE16B884206D3B9F135
:1031E000020F03D0059800B316B325E04A465946AE
:1031F0002046FEF7EAFCA16C21B149462046FEF7C5
:103200000FFE05E0616A19B104F1240000F08AFAAA
:1032100028B1C8F80070BFF34F8FBFF36F8FFFF76F
:10322000A3FA012007B0BDE8F08FFFF79DFA21E077
:103230006846FFF7DFFC0126FFF796FAFFF74AFD25
:10324000FFF756FA94F94400401C01D184F844A0D9
:1032500094F94500401C01D184F845A0FFF784FA99
:1032600005A9684600F00CF930B12046FEF79EFF34
:1032700000F0A4FA0020D5E7FFF73AFAA06BE16B63
:10328000884201D1012500E00025FFF76DFA95B1D4
:1032900004F110000599FFF713FC2046FEF786FFA6
:1032A00000F08CFA002894D1C8F80070BFF34F8F5B
:1032B000BFF36F8F8DE72046FEF778FF00F07EFAB0
:1032C00087E700002E2E5C4672656552544F535CB2
:1032D00071756575652E63004572726F723A25735C
:1032E0002C25640D0A00000004ED00E02DE9F047F4
:1032F000984615468946040005D140F29F322AA11E
:103300002EA0FDF71FF8B9F1000F07D1206C28B1EE
:103310004FF4687224A129A0FDF714F8B8F1020F48
:1033200008D1E06B012805D040F2A1321EA123A0F4
:10333000FDF708F8FFF7A8FA5020EFF3118780F3A4
:103340001188BFF34F8FBFF36F8FA06BE16B884283
:1033500007D3B8F1020F04D0002087F31188BDE82D
:10336000F08794F94560424649462046FEF72DFC19
:10337000701C04D0761C84F845600120EDE7A06C39
:10338000012620B141462046FEF74AFD06E0606A6C
:103390000028F2D004F1240000F0C4F90028ECD099
:1033A000002DEAD02E60E8E72E2E5C46726565524D
:1033B000544F535C71756575652E63004572726F6D
:1033C000723A25732C25640D0A0000002DE9F047A0
:1033D00090468946040005D14FF4B4621FA124A091
:1033E000FCF7B0FFB9F1000F07D1206C28B140F213
:1033F000A1521AA11EA0FCF7A5FFFFF745FA502025
:10340000EFF3118780F31188BFF34F8FBFF36F8FF6
:10341000A66BF6B194F9445049462046FEF7C2FB2C
:10342000761EA663681C04D06D1C84F844500120ED
:1034300010E020690028FAD004F1100000F072F9C1
:103440000028F4D0B8F1000FF1D00121C8F8001025
:10345000EDE7002087F31188BDE8F0872E2E5C464B
:1034600072656552544F535C71756575652E6300C6
:103470004572726F723A25732C25640D0A000000A4
:1034800070B50D46040005D140F6CB3214A119A049
:10349000FCF758FF2DB940F6CC3211A115A0FCF76E
:1034A00051FFFFF725F9174AD06829684B1C0FD048
:1034B0002368126A934202D0626882420AD9626823
:1034C000801A884206D2081A28602046FFF792FB2D
:1034D000002400E00124FFF747F9204670BD0000FA
:1034E0002E2E5C4672656552544F535C7461736B4B
:1034F000732E63004572726F723A25732C25640D2A
:103500000A000000800000202DE9FF5F8346DDE90E
:103510000E87994616468A469000FEF783FE050000
:103520001AD06420FEF77EFE040012D0256300212D
:10353000CDE90241CDE900874B4632465146584617
:10354000FEF7BEFB2046FEF773FA012004B0BDE88B
:10355000F09F2846FFF73AF94FF0FF30F6E70000FA
:103560000548416919B1006B18B10020704701206E
:103570007047022070470000800000200148C068AA
:1035800070470000800000202DE9F0412D4F0026FB
:10359000386B40B1B869401CB861F86900B10126C8
:1035A0003046BDE8F081FD686D1CFD6011D1F86BFF
:1035B000006828B140F6D91223A128A0FCF7C2FE6A
:1035C000F86B396CF9633864386A401C3862FEF76E
:1035D0004DFDB86ADFF89480854209D3F86B006826
:1035E00080B1F86BC068C468606885420DD2B8626B
:1035F0003868C06A00EB800158F821000128CCD956
:103600000126CAE74FF0FF30F1E7201DFEF7E6FF85
:10361000A06A18B104F11800FEF7E0FFE06A01218A
:103620003A6981401143396100EB800108EB810068
:10363000211DFFF751F8E06A3968C96A8842CDD385
:103640000126CBE7800000202E2E5C467265655275
:10365000544F535C7461736B732E63004572726FC9
:10366000723A25732C25640D0A00000080000120A9
:1036700070B504004FF000063CD01F4D286884420E
:1036800005D040F6C7621DA121A0FCF75BFE606D6E
:1036900028B940F6C96219A11DA0FCF753FE606D60
:1036A000401E6065226DE16A914223D010BB201D4F
:1036B000FEF794FF1A49012250B9E06A00EB80033B
:1036C00051F8233023B92B6902FA00F083432B61B0
:1036D000206DE062C0F12000A061E06A2B698240A9
:1036E0001A432A6100EB800001EB8000211DFEF7E8
:1036F000F3FF0126304670BD800000202E2E5C4670
:1037000072656552544F535C7461736B732E630022
:103710004572726F723A25732C25640D0A00000001
:10372000800001202DE9F041C068C4682CB940F642
:10373000613216A11AA0FCF705FE04F11800074635
:10374000FEF74CFF1A4D286B012660B13946194827
:10375000FEF7C2FFE06A2968C96A884213D90120CE
:10376000EE61BDE8F081201DFEF738FFE06A2A69AE
:1037700006FA00F1114329610F4900EB800001EBCB
:103780008000211DE4E70020EBE700002E2E5C46C0
:1037900072656552544F535C7461736B732E630092
:1037A0004572726F723A25732C25640D0A00000071
:1037B0008000002028030120800001202DE9F0472F
:1037C0002B4D00242746286B28B94FF4FD6229A110
:1037D0002DA0FCF7B7FDFEF78BFF286B401E28637A
:1037E000286BE8BBA8682C490126C8B3A1F52A7943
:1037F0008846D8F80010E9B1D8F80C00C46804F184
:103800001800FEF7EBFE201DFEF7E8FEE06A2A69CD
:1038100006FA00F11143296100EB800109EB8100F8
:10382000211DFEF759FFE06A2968C96A8842E0D382
:10383000EE61DEE70CB1FEF719FCAC693CB1FFF7B5
:10384000A3FE00B1EE61641EF9D10020A861E86911
:1038500030B11249012738070860BFF34F8F00E0ED
:1038600001E0BFF36F8FFEF77FFF3846BDE8F087BA
:10387000800000202E2E5C4672656552544F535CCA
:103880007461736B732E63004572726F723A2573A5
:103890002C25640D0A0000002803012004ED00E03F
:1038A0002DE9F0470746994616460D462C20DDF8CF
:1038B00020A0FEF7B7FC040014D0B8464F46D1460E
:1038C0002DB94FF4C67209A10EA0FCF73BFDFEF71F
:1038D00017F904F11801C4F8008081E8E002201D06
:1038E000FEF7DFFE2046BDE8F08700002E2E5C4686
:1038F00072656552544F535C74696D6572732E63C3
:10390000000000004572726F723A25732C25640D19
:103910000A0000001CB50024FEF7F2F80C4800680D
:1039200068B10B491F20091DCDE9000100234FF4A8
:10393000827208A10948FFF7E7FD040005D140F2B3
:10394000331207A10CA0FCF7FDFC20461CBD0000B3
:10395000C4000020546D7220537663008521000856
:103960002E2E5C4672656552544F535C74696D65CA
:1039700072732E63000000004572726F723A2573F5
:103980002C25640D0A0000002DE9FF47DDF830A06A
:10399000994690460D4606004FF0000705D14FF4BA
:1039A000D37212A117A0FCF7CDFC1A4C206880B18D
:1039B000CDE900580296062D11DAFFF7D1FD022855
:1039C0004FF0000309D0002269462068FFF7CAFBC8
:1039D000074604B03846BDE8F0875246F4E70023B6
:1039E0004A466946FFF782FCF2E700002E2E5C464D
:1039F00072656552544F535C74696D6572732E63C2
:103A0000000000004572726F723A25732C25640D18
:103A10000A000000C40000204FF04070E1EE100AE0
:103A20007047000080070000007800008007000059
:103A300020000000200000002000000000F0000036
:103A400000000F0000F00000683A000800000020AD
:103A5000FC000000C4010008643B0008FC000020DA
:103A6000F4580100E0010008000000000000000020
:103A70000000000000000000000000000000000046
:103A8000007A030A000000000000000001020304A5
:103A90000607080900000000000000000000000008
:103AA0000000000000000000010000000000000015
:103AB00000000000000000000102030401020304F2
:103AC000060708097D180008451900084001002074
:103AD000000000680000001040F1002000000F68A6
:103AE00000F00010000000000000000000000000D6
:103AF00000000000000000000000000000000000C6
:103B000000000000000000000000000000000000B5
:103B100000000000000000000000000000000000A5
:103B20000000000000000000000000000000000095
:103B30000000000000000000000000000000000085
:103B400000000000AAAAAAAA0000000000000000CD
:103B50000000000000000000000000000000000065
:043B60000000000061
:040000050800018965
:00000001FF
