:020000040800F2
:10000000F0590120F1020008BB0A00081D09000890
:10001000B90A00082D080008F71A000800000000BF
:10002000000000000000000000000000390200088D
:1000300045080008000000008D020008850E000839
:100040000B0300080B0300080B0300080B03000858
:100050000B0300080B0300080B0300080B03000848
:100060000B0300080B0300080B0300080B03000838
:100070000B0300080B0300080B0300080B03000828
:100080000B0300080B0300080B0300080B03000818
:100090000B0300080B0300080B0300080B03000808
:1000A000590F00080B0300080B0300080B0300089E
:1000B0000B0300084D1100080B0300080B03000898
:1000C0000B0300080B0300080B0300080B030008D8
:1000D0000B030008951800080B0300080B03000829
:1000E0000B0300080B0300080B0300080B030008B8
:1000F0000B0300080B0300080B0300080B030008A8
:100100000B0300080B0300080B0300080B03000897
:100110000B0300080B0300080B0300080B03000887
:100120000B0300080B0300080B0300080B03000877
:100130000B0300080B0300080B0300080B03000867
:100140000B0300080B0300080B0300080B03000857
:100150000B0300080B0300080B0300080B03000847
:100160000B0300080B0300080B0300080B03000837
:100170000B0300080B0300080B0300080B03000827
:100180000B0300080B03000800F002F800F044F82D
:100190000AA090E8000C82448344AAF10107DA45E2
:1001A00001D100F039F8AFF2090EBAE80F0013F0F0
:1001B000010F18BFFB1A43F001031847B83C0000B9
:1001C000D83C0000103A24BF78C878C1FAD852074A
:1001D00024BF30C830C144BF04680C6070470000C1
:1001E0000023002400250026103A28BF78C1FBD840
:1001F000520728BF30C148BF0B607047642900F028
:100200001781732900F04B82002070471FB503F05F
:1002100019FE1FBD10B510BD00F0B5FA1146FFF76D
:10022000F5FF01F001FD00F0D3FA03B4FFF7F2FF90
:1002300003BC01F061FC00002A4B19680868B0E8B3
:10024000F04F80F30988BFF36F8F4FF0000080F309
:10025000118870470000000006480068006880F3BD
:10026000088862B661B6BFF34F8FBFF36F8F00DFB0
:1002700000BF00BF08ED00E0DFF80C00016841F4AA
:1002800070010160704700BF88ED00E0EFF3098066
:10029000BFF36F8F134B1A681EF0100F08BF20EDCD
:1002A000108A20E9F04F106008B44FF0500080F33E
:1002B0001188BFF34F8FBFF36F8F02F029FF4FF00C
:1002C000000080F3118808BC19680868B0E8F04F96
:1002D0001EF0100F08BFB0EC108A80F30988BFF33E
:1002E0006F8F704778000020EFF3058070470000A3
:1002F0000948804709480047FEE7FEE7FEE7FEE7BA
:10030000FEE7FEE7FEE7FEE7FEE7FEE704480549F5
:10031000054A064B70470000990E00088901000845
:10032000F0530120F0590120F0550120F055012033
:10033000704700000FB4044910B503AA029800F0FA
:10034000B3F910BC5DF814FB400000200FB41CB5DD
:10035000074B06AA7B4469460090059800F075F9A2
:100360000020694600F084F91CBC5DF814FB000015
:10037000190300002DE9F0410E46044600202062DA
:100380002046E168884730B3252805D0D4E901210B
:100390009047206A401CF2E7E16820460027884722
:1003A000050018D0A5F14100192802D820354FF4D6
:1003B00000673246294620462760FFF71FFF40B1FD
:1003C000012804D0F61D26F007060836D8E7361DAA
:1003D000D6E72846DAE7206ABDE8F08170B50C461A
:1003E0000546012A05D02878800600D5EA69002351
:1003F00002E0012305E05B1C934202D2E05C00288E
:10040000F9D1A869E618C01AA861286A18442862B8
:100410002846AFF3008004E0D5E9012114F8010B70
:100420009047B442F8D32846AFF3008070BD000077
:100430002DE9F0410646002410687529314616A5BD
:1004400010D0AFF30080002802DA404213A507E085
:1004500031688A0701D512A502E0490704D511A524
:10046000012401E0AFF3008000210A2206F12407F5
:1004700009E0B0FBF2FCB0FBF2F302FB1C003030F1
:1004800078541846491C0028F3D123462A463046A2
:10049000BDE8F04100F07BB8000000002D00000036
:1004A0002B00000020000000032A40F2308010F0F2
:1004B000030C00F0158011F8013BBCF1020F6244FF
:1004C00098BF11F801CB00F8013B38BF11F8013B90
:1004D000A2F1040298BF00F801CB38BF00F8013B3D
:1004E00011F0030300F0F280083AC0F0088051F8E0
:1004F000043B083A51F804CBA0E80810F5E7121DB8
:100500005CBF51F8043B40F8043BAFF30080D207D6
:1005100024BF11F8013B11F801CB48BF11F8012BA2
:1005200024BF00F8013B00F801CB48BF00F8012BC5
:10053000704702F0FF0343EA032242EA024200F05E
:1005400002B84FF000020429C0F0128010F0030C32
:1005500000F0F080CCF1040CBCF1020F18BF00F8E1
:10056000012BA8BF20F8022BA1EB0C0100F0E2B890
:100570005FEAC17C24BF00F8012B00F8012B48BFC3
:1005800000F8012B704770477047704770472DE99E
:10059000F0470D4699469246044600F1240801684A
:1005A000880604D5E06921F01001216000E00120F7
:1005B000A84201DD471B00E00027A1697A1902EB80
:1005C0000900081AA0612078C00602D42046AFF3C3
:1005D0000080002608E0D4E901211AF806009047BF
:1005E000206A401C761C20624E45F4DB2078C00651
:1005F0000AD52046AFF3008006E0D4E9012130207F
:100600009047206A401C2062381EA7F10107F4DCE5
:1006100007E0D4E9012118F805009047206A401C42
:100620002062281EA5F10105F3DC2046AFF300800F
:100630002078000602D50220BDE8F0870120FBE704
:1006400001694A1C02610878704700B58FB0CDE996
:1006500001310021059105497944CDE90310114686
:100660006846FFF787FE0FB000BD0000E5FFFFFF03
:100670000A6802F8010B0A60704710B5436913B1AC
:10068000AFF3008001E0FFF7A9FE012010BD127852
:1006900000F124010A7000224A700122EDE711687E
:1006A0004FF0FF32E9E70000074B70B50D467B4481
:1006B000FFF7CBFF0446284600F061F810B14FF079
:1006C000FF3070BD204670BD6315000010B5203AA4
:1006D000C0F00B80B1E81850203AA0E81850B1E8FB
:1006E0001850A0E81850BFF4F5AF5FEA027C24BFB1
:1006F000B1E81850A0E8185044BF18C918C0BDE8A8
:1007000010405FEA827C24BF51F8043B40F8043B70
:1007100008BF7047D20728BF31F8023B48BF11F825
:10072000012B28BF20F8023B48BF00F8012B70477F
:100730004FF0000200B5134694469646203922BF7A
:10074000A0E80C50A0E80C50B1F12001BFF4F7AFC5
:10075000090728BFA0E80C5048BF0CC05DF804EBA7
:10076000890028BF40F8042B08BF704748BF20F815
:10077000022B11F0804F18BF00F8012B7047007B4F
:1007800000F080007047754600F02CF8AE4605007A
:100790006946534620F00700854618B020B5FFF79C
:1007A000B5FDBDE820404FF000064FF000074FF0C8
:1007B00000084FF0000B21F00701AC46ACE8C0097F
:1007C000ACE8C009ACE8C009ACE8C0098D46704788
:1007D00010B50446AFF300802046BDE81040FFF797
:1007E00024BD0000004870478C5301207CB50121D6
:1007F000202000F05DFA01208DF8040000208DF823
:10080000060003208DF805000220074D4FF4807488
:100810008DF8070000946946284600F01FF821462D
:10082000284600F06EF87CBD00140240FEE7000090
:1008300003480022026042605321312000F0A0BC36
:1008400030000020704710B500F0BAFB00F020FC2B
:1008500000F0C4FCBDE8104000F020BDF0B500225F
:1008600001274FF0030C0B6807FA02F52B40AB424F
:100870002CD1066853000CFA03F4A64306600E79E7
:10088000D0F800E09E4046EA0E0606600E79012E82
:1008900001D0022E12D18668A64386604E79D0F828
:1008A00008E09E4046EA0E0686604668AE43466013
:1008B00045688E799640B6B235434560C568A54314
:1008C000C560CC799C40C3681C43C460521C102A8C
:1008D000C9D3F0BD4B07DB0E9A40C90810B500EB39
:1008E0008100016A0F249C40A1430162016A114307
:1008F000016210BD0246002012690A4200D00120A8
:10090000704741837047018370474FF6FF71016064
:100910000021017141718171C1717047FEE70000D2
:100920001CB50121112000F0C3F91C20009000200B
:100930008DF8040003208DF8050001248DF8074090
:1009400069460648FFF78AFF02208DF807000094E9
:1009500069460348FFF782FF1CBD000000100240FB
:10096000000002402DE9F0412E4C2F4F2F4D012663
:1009700008B1267001E02078A0B110212846FFF7C9
:10098000B9FFB0B108212846FFF7B4FF88B10421B0
:100990002846FFF7AFFF60B101213846FFF7AAFFF5
:1009A000012806D010212846FFF7A4FF012824D0F3
:1009B00035E00A2001F0F8F80020207010212846C8
:1009C000FFF798FF80B108212846FFF793FF70B129
:1009D00004212846FFF78EFF58B101213846FFF762
:1009E00089FF012807D01AE00120BDE8F08102202C
:1009F000FBE70320F9E70420F7E708212846FFF783
:100A000079FF01280BD104212846FFF773FF012845
:100A100005D101213846FFF76DFF00B9267000208F
:100A2000E3E7000038000020000002400010024010
:100A300008B50F4D0F4C4FF0FF36286988B10023E1
:100A40003246694602F08EFC58B19DF8000001283C
:100A500007D0032805D1D4F8A00230B10020C4F893
:100A6000A0020A2002F0A0F9E7E70120F7E7000062
:100A700000000020008042427CB50121202000F0CF
:100A800017F901208DF8040000228DF806200321BB
:100A90008DF80510074D4FF480648DF80700009421
:100AA00069462846FFF7DAFE21462846FFF72BFF66
:100AB0007CBD000000140240FEE7704730B50F23F4
:100AC000C27801780125FAB1144A126801F1E021D7
:100AD00002F4E062C2F5E062C2F30722C2F104044C
:100AE000D3404278A24084781C401443220181F80C
:100AF0000024007800F01F018D404009800000F1C3
:100B0000E020C0F8005130BD01F01F0085404809C9
:100B1000800000F1E020C0F8805130BD0CED00E015
:100B20000249084302490860704700000000FA05C6
:100B30000CED00E01CB50121084600F0B9F80F20CB
:100B4000022100908DF8041000208DF806008DF829
:100B500005100E4C8DF8070069462046FFF77EFE13
:100B6000022200212046FFF7B5FE02220121204685
:100B7000FFF7B0FE022211462046FFF7ABFE02222D
:100B800003212046FFF7A6FE1CBD00000000024026
:100B900010B5FFF7CFFF9FED070ABDE81040F0EE5C
:100BA000401AB0EE401AF0EE400A4FF47A7132204B
:100BB00000F002B8000000002DE9F043BCEEC00ACE
:100BC0000D46074610EE101A6C1E4FF47A70614302
:100BD000B1FBF0F1BCEEE00A1FFA81F989B010EE2A
:100BE000101ABCEEC10A6143B1FBF0F11FFA81F8A3
:100BF00010EE101ABCEEE10A6143B1FBF0F18EB2C7
:100C000010EE101A6143B1FBF0F084B2012108200C
:100C100000F05AF805FB07F023490027B1FBF0F07C
:100C2000401E0695ADF81400204DADF81C70ADF8CF
:100C300016708DF81E7005A9284600F0E3FD70209F
:100C4000ADF800000120ADF802000420ADF804006A
:100C50000220ADF80C00C001ADF81000ADF80E7028
:100C6000ADF8127069462846CDF8089000F0C4FC33
:100C700069462846CDF8088000F0EEFC6946284613
:100C8000029600F029FD69462846029400F062FDB4
:100C90000121284600F066FB0121284600F06CFB8C
:100CA00009B0BDE8F083000000BD0105000C004064
:100CB000044A0029116801D0014300E0814311601A
:100CC0007047000030380240044A0029116801D002
:100CD000014300E08143116070470000403802404A
:100CE000044A0029116801D0014300E081431160EA
:100CF0007047000020380240044A0029116801D0E2
:100D0000014300E081431160704700004438024015
:100D1000044A0029116801D0014300E081431160B9
:100D2000704700002438024070B5204B1968204CF1
:100D300011F00C0104D06610042903D0082903D057
:100D400004601BE0066019E0184A121F1168C1F325
:100D50008055116801F03F0115B1B6FBF1F101E0DA
:100D6000B4FBF1F114681268C4F388146143C2F350
:100D70000142521C5200B1FBF2F1016019680F22CE
:100D800002EA11110B4A545C0168E14041601C68A1
:100D9000072505EA9424145D21FA04F484601B6895
:100DA00005EA5333D25CD140C16070BD08380240BF
:100DB0000024F400440000200CB5002227490092D2
:100DC0000192086840F4803008604FF4A04308683E
:100DD00000F4003001900098401C0090019810B978
:100DE00000989842F3D10868800334D5012001901F
:100DF0001A484030026842F0805202601848026887
:100E000042F44042026015480830026802600268FD
:100E100042F400420260026842F4A0520260031FE2
:100E2000104A1A600A6842F080720A600A689201E9
:100E3000FCD50D4940F205720A60016821F00301FA
:100E40000160016841F0020101600168C1F38101A4
:100E50000229FAD10CBD01920CBD000000380240FD
:100E60000070004008544007003C02404FF0E02171
:100E70000428086903D020F004000861704740F09E
:100E80000400FAE710B502F081FD012803D0BDE8A7
:100E9000104002F015BA10BD124810B5016841F4B7
:100EA000700101601048016841F0010101600E4AC3
:100EB00000210832116002680C4B1A400260031DC9
:100EC0000B4A1A60026822F48022026006480C3045
:100ED0000160FFF771FF03494FF00060803908603F
:100EE00010BD000088ED00E000380240FFFFF6FE74
:100EF0001030002470B5048C24F001040484058BA8
:100F0000048C4FF6FF7606EA0313134325F0F3052E
:100F10002B4324F00A020A4342F0010103830184B7
:100F200070BDF0B5048C24F010040484078B068C8B
:100F30004FF6FF7404EA011527F4734704EA0331FE
:100F4000394304EA02220A4326F0A001294341F072
:100F5000100102830184F0BDF8B50020154D00900A
:100F60000121284600F0D5FA01281ED132210020A7
:100F700000F054FF104C0646206840B13221304644
:100F8000FFF7DFFA6A463146206802F035FC314649
:100F9000002000F037FF009838B108494FF080502A
:100FA0000860BFF34F8FBFF36F8F0121284600F019
:100FB000D6F9F8BD004001401400002004ED00E027
:100FC00070B5012188B00846FFF77EFE0121084672
:100FD000FFF76EFE01210220FFF76AFE6846FFF769
:100FE00094FC02208DF8040000248DF807408DF851
:100FF00005002020244D009069462846FFF72EFC6E
:101000000821224E009169463046FFF727FC012255
:1010100005212846FFF75EFC012203213046FFF739
:1010200059FC6D03284600F0B3F902A800F028FC33
:10103000ADF808400394ADF81040ADF80A4002A99D
:10104000284600F0DFFB0A231A460321284600F059
:1010500047FA05A800F0BFFA0620ADF81C0005A964
:10106000284600F062FA0121284600F075F90122B5
:101070001146284600F0B7FA6C620121284600F0BC
:1010800071F908B070BD0000000002400004024089
:1010900030B589B001210220FFF716FE0121084674
:1010A000FFF706FE03A8FFF730FCC02003900220E4
:1010B0008DF8100000248DF81340224D8DF811009A
:1010C00003A92846FFF7CAFB022206212846FFF79C
:1010D00001FC022207212846FFF7FCFB1A4D284697
:1010E00000F056F9684600F0CBFBADF800400194E3
:1010F000ADF80840ADF802406946284600F082FB92
:101100000A231A460321284600F0EAF905A800F050
:1011100062FA0620ADF81C0005A9284600F005FA81
:101120000121284600F018F901221146284600F056
:101130005AFA0548243004600121284600F012F9CB
:1011400009B030BD000002400004004010B50A4C58
:101150000121204600F0DDF9012807D107490A687E
:101160004868521C40F100000A6048602046BDE813
:101170001040012100F0F3B80004004030000020CE
:101180007FB50D46044601210220FFF79DFD019425
:10119000ADF800500024104DADF80240ADF8084005
:1011A0006946284600F02EFB01221146284600F031
:1011B0001AFA0121284600F0D5F81D208DF80C0000
:1011C00001208DF80D008DF80E408DF80F0003A85A
:1011D000FFF774FC7FBD00000004004030B589B00B
:1011E00001210420FFF770FD01210820FFF760FDB9
:1011F00003A8FFF78AFB4FF44050039002208DF8BC
:10120000100000248DF81340224D8DF8110003A921
:101210002846FFF723FB02220C212846FFF75AFB42
:1012200002220D212846FFF755FB1B4D284600F0F2
:10123000AFF8684600F024FBADF800400194ADF82B
:101240000840ADF802406946284600F0DBFA0A2360
:101250001A460321284600F043F905A800F0BBF91F
:101260000620ADF81C0005A9284600F05EF9012112
:10127000284600F071F801221146284600F0B3F923
:101280000548243004600121284600F06BF809B0BD
:1012900030BD0000000C02400008004030B589B0AD
:1012A00001210220FFF728FD01210420FFF700FDA6
:1012B00003A8FFF72AFBC020039002208DF810003E
:1012C00000248DF81340224D8DF8110003A9284603
:1012D000FFF7C4FA032200212846FFF7FBFA032296
:1012E00001212846FFF7F6FA1A4D284600F050F87B
:1012F000684600F0C5FAADF800400194ADF808402A
:10130000ADF802406946284600F07CFA0A231A46E6
:101310000321284600F0E4F805A800F05CF9062057
:10132000ADF81C0005A9284600F0FFF80121284669
:1013300000F012F801221146284600F054F9054841
:10134000243004600121284600F00CF809B030BDBB
:101350000008024000040140C94301827047C943AC
:10136000018270470029018802D041F0010101E0AB
:1013700021F0010101807047002930F8441F02D09C
:1013800041F4004101E0C1F30E010180704700000B
:10139000464910B5884206D101210846FFF7B8FC3E
:1013A000002101205BE0B0F1804F09D04049884224
:1013B0000DD101210220FFF793FC0021022070E0F3
:1013C00001210846FFF78CFC0021012069E0394922
:1013D000884206D101210420FFF782FC002104206D
:1013E0005FE03549884206D101210820FFF778FCEB
:1013F0000021082055E03149884206D10121102002
:10140000FFF76EFC002110204BE02D49884206D1E9
:1014100001212020FFF764FC0021202041E0294920
:10142000884206D101210220FFF772FC0021022030
:1014300015E02549884202D101210C040AE0234924
:10144000884202D101214C0404E0214988420AD19A
:1014500001218C042046FFF75BFC00212046BDE8FB
:101460001040FFF755BC1B49884206D1012140209E
:10147000FFF736FC0021402013E01749884206D1CF
:1014800001218020FFF72CFC0021802009E0134976
:1014900088420AD1841501212046FFF721FC002152
:1014A0002046BDE81040FFF71BBC10BD0000014006
:1014B0000004004000080040000C00400010004004
:1014C000001400400004014000400140004401407D
:1014D0000048014000180040001C0040002000406F
:1014E00070B50589048B068C25F007050D434FF672
:1014F000FC410C4040F201110C434FF6FF7101EA30
:10150000031126F02206114331430581048301842F
:1015100070BD02460020138A92890B4202EA010242
:1015200002D0002A00D0012070472DE9F0410C467E
:101530000E884988A2882389054616B3042E28D030
:10154000082E2E8C4FF6FF702BD026F480562E845A
:10155000AF8B2E8C00EA022200EA013127F4734798
:101560003A4300EA0330104326F420420A4342F48F
:101570008051A8832984E1882846BDE8F04100F025
:1015800035B9FFF7B7FCE1882846BDE8F04100F027
:1015900011B9FFF7C6FCE1882846BDE8F04100F02C
:1015A00011B926F480762E84AF8B2E8C00EA0121AF
:1015B00000EA0310104327F0F307384326F42062B3
:1015C0000A4342F48071A8832984E1882846BDE853
:1015D000F04100F003B900210180418001228280A6
:1015E000C18001817047002A828901D00A4300E04E
:1015F0008A4382817047000030B5028C22F00102DC
:101600000284028C8388048B22F0020224F073058A
:101610000C882C438D8915434A882A430C4DA842D7
:1016200002D00C4DA8420DD122F00805CA8923F43E
:1016300040732A4322F004058A882A430D8A1D43F9
:101640004B8A2B438380048389684163028430BDC5
:10165000000001400004014070B5028C22F010022D
:101660000284028C8388048B0D8824F4E6464FF6AE
:10167000FF7404EA052535438E8922F0200204EA2E
:10168000061616434A8804EA02123243104EB0424C
:1016900002D0104EB04215D122F08006CA8923F440
:1016A000406304EA0212324322F040068A8804EAC8
:1016B000021232430E8A04EA86061E434B8A04EA6B
:1016C000830333438380058389688163028470BD0B
:1016D000000001400004014070B5028C22F48072C9
:1016E0000284028C8388848B0D8824F07304254344
:1016F0008E894FF6FF7422F4007204EA0626164320
:101700004A8804EA02223243104EB04202D0104E00
:10171000B04215D122F40066CA8923F4405304EA8A
:101720000222324322F480668A8804EA022232438B
:101730000E8A04EA06161E434B8A04EA0313334357
:10174000838085838968C163028470BD0000014085
:101750000004014070B5028C22F480520284058C92
:101760008288838B0C8823F4E6464FF6FF7303EAE6
:101770000424344325F400568D8903EA05353543A6
:101780004E8803EA06362E43084DA84202D0084D83
:10179000A84205D122F480450A8A03EA82122A432C
:1017A0008280848389680164068470BD00000140E2
:1017B00000040140028B22F00C020283028B0A43D8
:1017C00002837047028B22F440620283028B4FF641
:1017D000FF7303EA01210A4302837047828B22F0E0
:1017E0000C028283828B0A4382837047828B22F4AD
:1017F00040628283828B4FF6FF7303EA01210A4322
:101800008283704730B50288164C174DA0420DD028
:10181000A8420BD0B0F1804F08D0144B984205D0AD
:10182000134B984202D0134B984203D122F070031D
:101830004A881A43104B984206D0104B984203D066
:1018400022F440730A891A4302804A68C2620A88F5
:101850000285A04201D0A84201D1897A01860121E6
:10186000818230BD000001400004014000040040BE
:1018700000080040000C0040001000400014004030
:101880004FF0FF3141600021018001814180817270
:1018900070470000F8B5224E40F22551304600F066
:1018A00053F8204C0025C8B1304600F0DBF8C1B237
:1018B0002088020415D4420404D50A290DD140F42D
:1018C00000402AE00D2926D0C0F30D02164B401C23
:1018D00080B299542080312800D9258020880004C6
:1018E00018D512480068002814D000236A460E4913
:1018F00001F012FF258032210B48FEF722FE0098EE
:10190000002807D00A494FF080500860BFF34F8F7E
:10191000BFF36F8FF8BD40F480402080DEE7000009
:10192000001001403E000020F400002014000020C0
:1019300004ED00E00029818902D041F4005101E06A
:1019400021F400518181704770B501F01F05012617
:101950000024C1F3421306FA05F2012B0FD0022B2B
:101960000FD0838A4FEA11210088134206FA01F64C
:1019700000EA060001D000B10124204670BD838931
:10198000F0E7038AEEE710B5C1F3421301F01F043C
:101990000121A140012B07D0022B07D01430002ACF
:1019A000026805D00A4304E00C30F8E71030F6E78F
:1019B0008A43026010BD00007FB50446008A0D46D0
:1019C000C98820F4405001432182A08941F20C6172
:1019D0008843A9882A8911436A8902431143A18156
:1019E000A08A20F44071A8890843A0826846FFF7C6
:1019F0009BF91A48844202D01948844201D10398C5
:101A000000E00298A189090400EBC00101EB00107D
:101A1000296801D5490000E08900B0FBF1F064229B
:101A2000B0FBF2F109010B096FF018056B4300EBF5
:101A30008300A3891D044FF0320306D503EBC000D9
:101A4000B0FBF2F000F0070005E003EB0010B0FB84
:101A5000F2F000F00F00084320817FBD001001402C
:101A6000001401408088C0F308007047491E02EE50
:101A7000101A1D4AB8EEC22A20EE022A9FED190A5A
:101A8000C2EE002ABDEEE22A12EE100A106002EE4B
:101A9000101A121DB8EEC22A60EE820A80EE802A69
:101AA000FDEEC20A10EE900A106000EE901A121DB0
:101AB000F8EEE00A61EE200A80EE801AFDEEC10A1F
:101AC00010EE900A106000EE901A111DF8EEE00A78
:101AD00061EEA00A80EE801ABDEEC10A10EE100A77
:101AE0000860704700007A44340C00404FF47A716B
:101AF0003220FFF7BBBFFEE77047000070B501F072
:101B00000DF8124C606900F0B3FFC5B2606900F0D7
:101B10008DFF0646606900F0ABFF3044C4B214216B
:101B2000002000F07BF90646224609A1FEF70EFCD4
:101B30002A460BA13046FEF709FC3146002000F092
:101B400061F9BDE8704001F025B8000000000020F8
:101B5000546F74616C2053697A653A256400000003
:101B600052656D61696E2053697A653A256400009B
:101B700010B504460420FFF779F90A484FF47A714A
:101B8000047014FB01F1012242804FF0E020026951
:101B900042F0020202614161016941F0010101610B
:101BA00010BD00003A00002070B5044601F0EEFEC2
:101BB00001280CD0094D6888844203D3B4FBF0F0AF
:101BC00001F0F2F86888B4FBF0F100FB11444FF427
:101BD0007A706043BDE8704000F002B83A0000201F
:101BE00070B54FF0E02500216C69094AAB691278A5
:101BF0005043AA699A42FCD002D2A3EB020302E04E
:101C0000A4EB02063344194413468142F1D370BD5C
:101C10003A00002003490A885206FCD5C2B28A80E5
:101C200070470000001001401CB54FF44070FEF7F3
:101C300077FFA820FFF79CFF4FF4E13000F08EFE05
:101C4000FEF701FEFEF718FFFEF76AFEFEF7CEFD77
:101C5000FEF79EFFDFED0D1A9FED0D1ADFED0D0A69
:101C6000B3EE040AFFF742FF002000F04BF80A49E8
:101C70000120CDE900010202002308A10A4801F079
:101C800059FE01F0F1F900201CBD000000001644CF
:101C90000000FA43000048430000002073746172A2
:101CA000745F7461736B00000528000870B5134AF7
:101CB000131893F8203093B1114B53F820308B4216
:101CC0001AD90F4B02EB80020C3B53F820305069BD
:101CD000B1FBF3F130F811400020034608E0116831
:101CE0008847012070BD55690E18401C25F8163034
:101CF000A042F8DB002070BD022070BD540000201F
:101D0000683E000870B504460B480C4E002150F8A0
:101D1000240006EB84054200686900F08FF806484D
:101D20000021183050F82420A86800F087F801201E
:101D3000311981F8200070BD503E00085400002089
:101D40002DE9F0411F4E0546002470190F4690F80A
:101D5000200010B93168284688474FF0FF327FB322
:101D6000194B53F82510B7FBF1F0B7FBF1FC01FB61
:101D70001C7101B1401C14490C3951F82510491E41
:101D80001ED406EB8506776937F811C0BCF1000F49
:101D900005D00024844211D1002284B207E0641CE3
:101DA000F8E7776901EB020C521C27F81C408242CD
:101DB000F7D353F825004843BDE8F081491EE3D529
:101DC0001046F9E7540000205C3E000810B50B4BAC
:101DD0000B4C002253F82030114604EB800005E044
:101DE000446934F8114004B1521C491C8B42F7D8A5
:101DF00064204243B2FBF3F0C0B210BD503E000875
:101E000054000020002906D0034A02EB80029268A9
:101E1000891AFFF74BBF70475400002010B50446E5
:101E2000FFF78EFF411C05D0034901EB840189684F
:101E3000084410BD002010BD5400002001E000F84F
:101E4000011B521EFBD270472DE9F041184E0F4680
:101E50000446F5683068001D00F0D6FD38B93068DA
:101E600090F82C1001208840316981433161601C59
:101E700007D137B13168BDE8F0410E48091D00F0C7
:101E800041BE30682C44AC424460316805D2306CAD
:101E9000BDE8F041091D00F01DBEF06B091D00F00A
:101EA00019FEB06A844200D2B462BDE8F08100003D
:101EB00078000020500301202DE9F041054600F094
:101EC0002DFE2D4EB068401CB06030682B4F10B115
:101ED000706930B32BE03560B068012827D1002449
:101EE00004EB840007EB800000F0E6FD641C202C6E
:101EF000F6D3234800F0E0FD2148143000F0DCFD6B
:101F00001F48283000F0D8FD1D483C3000F0D4FDBB
:101F10001B48503000F0D0FD1948F0631430306495
:101F200005E03068E96AC06A884200D83560706AA6
:101F30000121401C7062A864E86A32698140114343
:101F4000316100EB800007EB8000291D00F0DAFD15
:101F500000F020FE706900280CD03068E96AC06A81
:101F6000884207D207494FF080500860BFF34F8F77
:101F7000BFF36F8FBDE8F081780000208000012062
:101F80000003012004ED00E010B500F0C7FD0E4C89
:101F90002068A0B90D4800F08FFD0C48143000F007
:101FA0008BFD0A48E06014302061002210210520DA
:101FB00001F09CF9206010B105A100F0C1FEBDE860
:101FC000104000F0E7BD0000BC00002064030120C9
:101FD000546D72510000000070B5124E124D1CE09D
:101FE00001F08EF8306820B1002401F0FDFDA4B9A5
:101FF00001E00124F9E700F091FDF068C468201DBC
:1020000000F002FDA868401EA8606868401E686075
:1020100000F0C0FD204600F052F868680028DFD1CB
:1020200070BD00003C0301207800002030B4026C39
:102030000B46002A0BD0C1681144C1604468A1421C
:1020400001D30168C16030BC1846FEF72DBA30BC20
:1020500070472DE9F041856B174604460026026C57
:1020600082B1C7B1E068FEF71FFAE168206C091A77
:10207000E1602268914202D26168081AE060022F92
:1020800016D017E02068A8B9606801F007FD064681
:10209000002060600EE0A068FEF706FA216CA068E0
:1020A0000844A0606168884204D32068A06001E011
:1020B00005B16D1E6D1CA5633046BDE8F08110B5FD
:1020C0000446006B00F098FD2046BDE8104000F08B
:1020D00093BD000010484FF4A041420706D0C01D38
:1020E0000D4920F00700411AC1F5A0410B4A002319
:1020F0000144C2E900030839103A21F007011160D8
:102100004B600B600B1AC0E9001393604FF0004066
:102110005360D060704700008C030120EC00002069
:10212000074E4FF08054074DFFF756FF30680128E7
:10213000FAD92C60BFF34F8FBFF36F8FF4E7000025
:102140008000012004ED00E02DE9F047DDE909847D
:102150000E461746824691009946089DA522206B9F
:10216000FEF7E7F96FF00301206B01EB87010844EC
:1021700020F00707780705D040F22B3219A11EA0E6
:10218000FEF7D8F800202218315C82F83410315C58
:1021900011B1401C1428F6D3002684F84760202D86
:1021A00000D31F25E562C4E91456201D00F08FFC02
:1021B00004F1180000F08BFC2461C5F1200064627A
:1021C000A061A665E66584F860604A4651463846D7
:1021D00000F002FB2060B8F1000F01D0C8F8004009
:1021E000BDE8F0872E2E5C4672656552544F535CF5
:1021F0007461736B732E63004572726F723A25734C
:102200002C25640D0A00000030B5114900E011468C
:102210000A688242FBD34B685C18844203D1406851
:1022200018444860084643681C18944209D1084C79
:10223000103C2468A24209D052681A4442600A68DD
:1022400012680260814200D0086030BD0460F9E786
:10225000EC00002070B5002441600B4D00619142FC
:1022600006D8D11A8269914206D2011D286907E079
:102270009A4203D2994201D3012403E0011DE86888
:1022800000F028FC204670BDBC00002010B50446BC
:1022900000F044FCA06B20B1002400F07BFC204641
:1022A00010BD0124F9E700002DE9F34100980F4625
:1022B0000026846C2CB940F6CE1216A11AA0FEF7A7
:1022C00039F8A06BE16B884205D340F6CF1211A11B
:1022D00015A0FEF72FF8A06BE16B88420CD294F9A1
:1022E00045503A4669462046FFF7B3FE0646681C4D
:1022F00005D06D1C84F845503046BDE8FC81606A0D
:102300000028F9D004F1240001F022FC0028F3D0C9
:102310000126F1E72E2E5C4672656552544F535CE0
:1023200071756575652E63004572726F723A25731B
:102330002C25640D0A000000F8B5054614480E4629
:10234000C068C068C468201D00F05EFBE069012819
:1023500017D1A0692B46411932462046FFF77AFF74
:1023600078B100200346014600902A46204601F03D
:1023700021FD30B907494FF4027201F11800FDF751
:10238000D9FF616A01B02046BDE8F040084700006F
:10239000BC000020183D000870B586B02F4E53E0F9
:1023A0000198002806DADDE90301029A90470198B6
:1023B000002849DB039C606910B1201D00F024FB5C
:1023C00005A800F0A7F8054601980A283CD2DFE8E6
:1023D00000F00505053B273805053B270298A16954
:1023E000034601442A462046FFF734FF00282BD03D
:1023F000616A20468847E069012825D100200090C5
:102400000298A169002342181946204601F0D2FC27
:10241000D0B940F2213212A117A0FDF78BFF13E0D3
:102420000298A06128B94FF44E720DA112A0FDF7D9
:1024300081FFA0692B4641191A462046FFF70AFF83
:1024400002E0204600F0D8FB00231A4601A93068BC
:1024500000F088FF0028A3D106B070BDBC000020AA
:102460002E2E5C4672656552544F535C74696D65DF
:1024700072732E63000000004572726F723A25730A
:102480002C25640D0A000000F8B50D46064600F044
:1024900037FE684600F03EF80446009810B101F09F
:1024A000A3FBF8BD1148ADB101690968D9B1002598
:1024B000311B2A46006800F055FC01F095FB00280E
:1024C000EFD10B494FF080500860BFF34F8FBFF33F
:1024D0006F8FF8BDA642EBD801F086FB214630464F
:1024E000FFF72AFFF8BD0125E2E70000BC0000204D
:1024F00004ED00E00648C16B096829B1C16BC968E9
:10250000C9684968816270474FF0FF31FAE70000FF
:102510007800002070B5054601F046FA064E0446E4
:10252000B068844203D200F009F8012000E00020E6
:1025300028602046B46070BDBC000020F8B5184E7D
:1025400026E0C068C4680568201D00F05DFA616A75
:1025500020468847E06901281AD1A0692844A8428A
:1025600006D924616060211DF06800F0B3FA0FE025
:1025700000200346014600902A46204601F01AFC3E
:1025800030B9084940F2923201F11800FDF7D2FE4D
:10259000F06801680029D4D13169C6E90310F8BD9B
:1025A000BC000020183D000808484068401C05D0C9
:1025B00040F20F1206A111A0FDF7BCFE502080F3DF
:1025C0001188BFF34F8FBFF36F8FFEE7D00000205D
:1025D0002E2E5C4672656552544F535C706F727458
:1025E00061626C655C525644535C41524D5F434D91
:1025F00034465C706F72742E630000004572726F17
:10260000723A25732C25640D0A000000084CE0681E
:10261000016839B1002139B10020FFF735FFFFF71C
:10262000BBFEF4E70121F6E7C0680068F5E70000AB
:10263000BC0000202DE9F041044600F06FFA94F947
:10264000455004F1240610E0A06C20B10021204682
:10265000FFF72AFE04E0606A48B1304601F078FADC
:1026600008B100F03DFC6D1E6DB2002DECDC4FF0AA
:10267000FF3684F8456000F08DFA00F04FFA94F9C7
:10268000445004F1100709E0206948B1384601F0D0
:102690005FFA08B100F024FC6D1E6DB2002DF3DC72
:1026A00084F84460BDE8F04100F074BA2DE9F041CF
:1026B0000546002600F024FD324F386808B9FFF7C0
:1026C00009FDF86805424FD1002D4DD00835680747
:1026D0000BD005F00700C0F108000544680704D0DE
:1026E000BF2229A132A0FDF725FE002D3CD078683D
:1026F000854239D8234910310846046801E0214653
:1027000004466068A84202D220680028F7D13868E1
:10271000B846844228D00E68206808606068083691
:10272000401B10280ED96719780704D0EC2216A197
:102730001FA0FDF7FFFD6068401B786038466560AC
:10274000FFF762FD6168D8F804004246401AC8F8F5
:102750000400D8F80830984200D29060D8F80C00F5
:1027600001430020C4E9000101F03EFA700705D0E2
:102770004FF4967204A10EA0FDF7DCFD3046BDE8D3
:10278000F0810000DC0000202E2E5C467265655250
:10279000544F535C706F727461626C655C4D656D13
:1027A0004D616E675C686561705F342E6300000088
:1027B0004572726F723A25732C25640D0A00000071
:1027C0000449086818B10868426D521C42650868DF
:1027D000704700007800002010B5031F4FF0807490
:1027E0001C601B1F21F001011960191F044B0B60B5
:1027F00014390A60091F6FF0020244380A6010BDE4
:10280000A92500087CB500F089F9012100220846BD
:1028100000F06CFD174C002232212061042000F0F2
:1028200065FD02256061201DCDE90050EE01002309
:10283000324611A1134801F07DF804F10800CDE9FA
:1028400000500023324610A1124801F073F804F141
:102850000C010320CDE90001002332460EA11248ED
:1028600001F068F8206800F0D5FABDE87C4000F07F
:1028700091B90000000000207461736B315F7461D6
:10288000736B0000AD2800087461736B325F746174
:10289000736B00003D2900086B657970726F63658A
:1028A00073735F7461736B00310A000808B500240C
:1028B000174E184D0A270020FEF754F88DF8000037
:1028C000D6F810C0BCF1000F0AD048B100230A228C
:1028D0006946604600F05CFE10B90FA0FDF72AFDC6
:1028E000641CE4B2B4FBF7F007FB104008B9FFF733
:1028F00005F9322C06D1D5F8A402002430B100200D
:10290000C5F8A4020A2000F04FFAD4E70120F7E747
:102910000000002000804242B6D3C1D04B65795FF1
:102920005175657565D2D1C2FAA3ACCAFDBEDDB7DB
:10293000A2CBCDCAA7B0DC210D0A00000025054CB2
:102940002068256001B204A0FDF7F4FC0A20FFF71F
:102950002BF9F5E72404004025640A00F0B507468A
:10296000012187B00846FEF7A3F901211020FEF7E8
:10297000C3F9234E072209213046FDF7ABFF07229A
:102980000A213046FDF7A6FF4FF4C06004900220F4
:102990008DF814008DF8150000248DF816400125DF
:1029A0008DF8175004A93046FDF758FFADF80840E0
:1029B0000C20144EADF80440ADF80A000097ADF8B5
:1029C0000640ADF80C4069463046FEF7F5FF0121A0
:1029D0003046FEF7AFFF012240F225513046FEF7A8
:1029E000D2FF25208DF8180007208DF819008DF8EA
:1029F0001A408DF81B5006A8FEF760F807B0F0BD2E
:102A00000000024000100140D0E9013201699A60E3
:102A1000D0E901235A604A68824201D182684A6043
:102A2000002202610868401E0860704710B504006B
:102A300005D140F22F6205A109A0FDF77BFC00F053
:102A40006DF8A46B00F0A6F8204610BD2E2E5C4653
:102A500072656552544F535C71756575652E6300E0
:102A60004572726F723A25732C25640D0A000000BE
:102A700010B5040005D140F2416206A10AA0FDF79D
:102A800059FC00F04BF8D4E90E10441A00F082F81B
:102A9000204610BD2E2E5C4672656552544F535C25
:102AA00071756575652E63004572726F723A257394
:102AB0002C25640D0A00000000F108014FF0FF32E0
:102AC000C0E90112C160016100210160704700216D
:102AD0000161704730B50C68621C02D000F1080239
:102AE00002E0026904E01A4653681D68A542FAD95B
:102AF00053684B6099608A60516008610168491CA5
:102B0000016030BD42684A6093688B609368596089
:102B1000916008610168491C01607047502080F392
:102B20001188BFF34F8FBFF36F8F09494868401C6E
:102B3000486001280AD10748006810F0FF0F05D04F
:102B400040F2B91204A10FA0FDF7F4BB70470000DA
:102B5000D000002004ED00E02E2E5C467265655228
:102B6000544F535C706F727461626C655C52564472
:102B7000535C41524D5F434D34465C706F72742E0E
:102B8000630000004572726F723A25732C25640D44
:102B90000A00000010B5084C606828B94FF4E072D4
:102BA00006A111A0FDF7C6FB6068401E606001D160
:102BB00080F3118810BD0000D00000202E2E5C464E
:102BC00072656552544F535C706F727461626C65CC
:102BD0005C525644535C41524D5F434D34465C70E9
:102BE0006F72742E630000004572726F723A257323
:102BF0002C25640D0A00000070B500282AD0164D5F
:102C0000A0F108046068E968084205D14FF4A07299
:102C100012A11CA0FDF78EFB206828B140F24112E2
:102C20000EA118A0FDF786FB6068E968084211D084
:102C30002268002A0ED18843606000F061FA606863
:102C40006968084468602046FFF7DEFABDE8704016
:102C500000F0CABF70BD0000DC0000202E2E5C46D4
:102C600072656552544F535C706F727461626C652B
:102C70005C4D656D4D616E675C686561705F342E9B
:102C8000630000004572726F723A25732C25640D43
:102C90000A00000006484FF47A710068B0FBF1F1B9
:102CA0004FF0E020491E416107210161704700009B
:102CB0001800002010B5FDF717FB104C10280CD39E
:102CC00000F1E02090F8F0032178884205D24FF41B
:102CD00040720BA115A0FDF72DFB18480068A168F4
:102CE00000F4E060884207D9BDE810404FF4447218
:102CF00003A10EA0FDF71EBB10BD0000D0000020F8
:102D00002E2E5C4672656552544F535C706F727420
:102D100061626C655C525644535C41524D5F434D59
:102D200034465C706F72742E630000004572726FDF
:102D3000723A25732C25640D0A0000000CED00E0AA
:102D400010B5074B002253F832401CB1521C082A20
:102D5000F9D310BD43F8321003EBC201486010BD37
:102D60004000012070B515460E460446FFF7D6FE1A
:102D700094F944100020491C01D184F8440094F9CE
:102D80004510491C01D184F84500FFF703FFA06BF3
:102D900028B92A46314604F1240000F0D1F8204633
:102DA000BDE87040FFF746BC10B5040012D00E49D4
:102DB000096B29B140F2CF420CA111A0FDF7BAFA7C
:102DC00000F09EF900212046FFF73EF800F00CFFCE
:102DD000002807D10E494FF080500860BFF34F8F95
:102DE000BFF36F8F10BD0000780000202E2E5C46D0
:102DF00072656552544F535C7461736B732E63003C
:102E00004572726F723A25732C25640D0A0000001A
:102E100004ED00E070B50446FFF780FE234D04B9D1
:102E20002C68201DFFF7F0FD58B9E06A204A00EB3E
:102E3000800152F8211021B901218140286988437D
:102E40002861A06A18B104F11800FFF7DDFD686A77
:102E5000401C68622868844207D1211D1548FFF78D
:102E600051FE6868401C686007E0A868401EA860C2
:102E70002046FFF724F9FFF73DFBFFF78BFE68695B
:102E8000002812D0286884420FD1286B28B140F264
:102E9000654209A10DA0FDF74DFA10494FF0805091
:102EA0000860BFF34F8FBFF36F8F70BD78000020B5
:102EB000800001203C0301202E2E5C467265655285
:102EC000544F535C7461736B732E63004572726F61
:102ED000723A25732C25640D0A00000004ED00E011
:102EE00001490120C86170477800002070B50D4687
:102EF000040005D140F6063207A10CA0FDF71AFA2E
:102F00000E48016820461831FFF7E4FD2846BDE869
:102F100070400121FEF798BF2E2E5C467265655207
:102F2000544F535C7461736B732E63004572726F00
:102F3000723A25732C25640D0A00000078000020E9
:102F400070B514460E46050005D140F6313209A190
:102F50000DA0FDF7EFF91048016828461831FFF77A
:102F6000D1FD0CB14FF0FF3621463046BDE8704030
:102F7000FEF76ABF2E2E5C4672656552544F535C55
:102F80007461736B732E63004572726F723A2573AE
:102F90002C25640D0A0000007800002070B50400A4
:102FA00039D01D4DE06A2968C96A884233D2A069C8
:102FB000002804DB2868C06AC0F12000A061E06A34
:102FC000164E00EB8000616906EB800081421FD144
:102FD000201DFFF719FD012150B9E06A00EB8002C6
:102FE00056F8222022B92A6901FA00F082432A61A8
:102FF0002868C06AE0622A6981401143296100EBB8
:10300000800006EB8000211DBDE87040FFF77ABD0F
:103010002868C06AE06270BD78000020800001204E
:1030200010B5040005D140F6C13205A109A0FDF795
:1030300081F90C48016A2160C068606010BD000021
:103040002E2E5C4672656552544F535C7461736BEF
:10305000732E63004572726F723A25732C25640DCE
:103060000A000000780000201CB518480024CDE9B3
:1030700000402346822216A1174800F05BFC01287D
:1030800003D100F05DFE01280AD0401C1DD102B022
:1030900040F28472BDE8104010A115A0FDF74AB9B6
:1030A000502080F31188BFF34F8FBFF36F8F074815
:1030B0004FF0FF312C38816201214161C460FDF77E
:1030C000B7FBBDE81C4000F071B81CBDA400002097
:1030D00049444C4500000000212100082E2E5C468A
:1030E00072656552544F535C7461736B732E630049
:1030F0004572726F723A25732C25640D0A00000028
:103100000248016B491C01637047000078000020F1
:1031100070B51A4C206B10B10120E06170BD002029
:10312000E061174908684968A063626B904204D95E
:103130002168821A8B6D1A448A6560632069114E7A
:10314000B0FA80F0C0F11F0000EB800556F82500B2
:1031500028B940F6F6220CA110A0FDF7EBF806EB1B
:10316000850000F10802416849684160914201D13F
:1031700049684160C868206070BD00007800002088
:1031800030000020800001202E2E5C4672656552C2
:10319000544F535C7461736B732E63004572726F8E
:1031A000723A25732C25640D0A0000001CB5304CC2
:1031B00020683049884205D140F259122EA139A029
:1031C000FDF7B8F820682B49491E884205D14FF415
:1031D000AD7229A133A0FDF7ADF8364C20780190EF
:1031E000FF20207020788DF800009DF800009DF8E9
:1031F000001000F0F000884205D040F273121EA1CA
:1032000028A0FDF797F89DF800002B4A00F0500029
:1032100010700720906007E09068401E90609DF855
:10322000000040008DF800009DF800000006F3D477
:10323000107A000200F4E0609060019820700C4861
:103240002030016841F470010160016841F0704173
:103250000160FFF71FFD00205060FDF70DF81748D3
:10326000016841F040410160FCF7F6FF00201CBD01
:1032700000ED00E071C20F412E2E5C467265655272
:10328000544F535C706F727461626C655C5256444B
:10329000535C41524D5F434D34465C706F72742EE7
:1032A000630000004572726F723A25732C25640D1D
:1032B0000A00000000E400E0D000002034EF00E04D
:1032C00010B5502080F31188BFF34F8FBFF36F8F7D
:1032D00000F070FB18B104494FF0805008600020E6
:1032E00080F3118810BD000004ED00E02DE9F041ED
:1032F00017460E46050005D14FF4C47210A115A063
:10330000FDF718F8BEB105FB06F05430FFF7CEF913
:1033100004000ED004F154007EB12060C4E90F56C1
:103320002046012100F0E0F884F85070002120468A
:10333000A164BDE8F0810020E7E72460EEE700002B
:103340002E2E5C4672656552544F535C71756575DF
:10335000652E63004572726F723A25732C25640DD9
:103360000A0000002DE9FF4F83B09B468A46040007
:103370004FF0000605D140F2DC4251A155A0FCF708
:10338000D9FFBAF1000F07D1206C28B140F2DD421D
:103390004BA150A0FCF7CEFF00F0F8FA38B9059821
:1033A00028B14FF49C6246A14AA0FCF7C3FF4FF03E
:1033B00000094FF08057DFF82C81FFF7AFFBA56BBA
:1033C00045B351462046E668FEF730FEBBF1000FDC
:1033D00013D0E660606A50B104F1240000F0B8FB3D
:1033E00028B1C8F80070BFF34F8FBFF36F8FFFF79E
:1033F000D1FB012007B0BDE8F08F6D1EA5632068EA
:1034000010B9FFF7DDF9606020690028EFD004F102
:103410001000E3E7059808B11EB106E0FFF7BAFB1C
:1034200027E06846FFF7FCFD0126FFF7B3FBFFF737
:1034300067FEFFF773FB94F94400401C01D184F848
:10344000449094F94500401C01D184F84590FFF761
:10345000A1FB05A9684600F029FA002820460AD0F9
:10346000FFF7E8F800F0C0FB2046FEF70FFF00284A
:10347000A3D00020BEE7FEF709FFD8B1206830B91D
:10348000FFF74CFB6068FFF789FDFFF783FB04F152
:1034900024000599FFF72AFD2046FFF7CBF800F03E
:1034A000A3FB002889D1C8F80070BFF34F8FBFF38A
:1034B0006F8F82E72046FFF7BDF800F095FB7CE7B1
:1034C0002E2E5C4672656552544F535C717565755E
:1034D000652E63004572726F723A25732C25640D58
:1034E0000A00000004ED00E070B50D46040005D1AF
:1034F00040F21B121CA121A0FCF71CFFFFF70EFBE2
:10350000D4E90F20216802FB001161600021A16352
:103510002168A1600A46D4E90F01401E00FB012189
:10352000E16021464FF0FF3001F8440F487004F18C
:1035300010004DB1FFF7C0FA04F12400FFF7BCFA08
:10354000FFF728FB012070BD21690029F8D000F0A9
:10355000FFFA0028F4D00D494FF080500860BFF307
:103560004F8FBFF36F8FEBE72E2E5C46726565526F
:10357000544F535C71756575652E63004572726FAB
:10358000723A25732C25640D0A00000004ED00E05A
:103590002DE9FF4F83B099468B4604004FF000069B
:1035A00005D140F2D92252A156A0FCF7C3FEBBF1CF
:1035B000000F07D1206C28B140F2DA224CA151A0B3
:1035C000FCF7B8FEB9F1020F08D1E06B012805D075
:1035D00040F2DB2246A14BA0FCF7ACFE00F0D6F98E
:1035E00038B9059828B140F2DE2241A145A0FCF788
:1035F000A1FE4FF0000A4FF08057DFF81881FFF767
:103600008DFAA06BE16B884206D3B9F1020F03D0AB
:10361000059800B316B325E04A4659462046FEF702
:1036200018FDA16C21B149462046FEF73DFE05E09C
:10363000616A19B104F1240000F08AFA28B1C8F8CF
:103640000070BFF34F8FBFF36F8FFFF7A3FA012016
:1036500007B0BDE8F08FFFF79DFA21E06846FFF75D
:10366000DFFC0126FFF796FAFFF74AFDFFF756FA4F
:1036700094F94400401C01D184F844A094F9450019
:10368000401C01D184F845A0FFF784FA05A96846DB
:1036900000F00CF930B12046FEF7CCFF00F0A4FAA0
:1036A0000020D5E7FFF73AFAA06BE16B884201D121
:1036B000012500E00025FFF76DFA95B104F1100037
:1036C0000599FFF713FC2046FEF7B4FF00F08CFAD3
:1036D000002894D1C8F80070BFF34F8FBFF36F8FED
:1036E0008DE72046FEF7A6FF00F07EFA87E7000090
:1036F0002E2E5C4672656552544F535C717565752C
:10370000652E63004572726F723A25732C25640D25
:103710000A00000004ED00E02DE9F0479846154648
:103720008946040005D140F29F322AA12EA0FCF761
:1037300001FEB9F1000F07D1206C28B14FF4687277
:1037400024A129A0FCF7F6FDB8F1020F08D1E06B27
:10375000012805D040F2A1321EA123A0FCF7EAFD0A
:10376000FFF7A8FA5020EFF3118780F31188BFF319
:103770004F8FBFF36F8FA06BE16B884207D3B8F117
:10378000020F04D0002087F31188BDE8F08794F978
:103790004560424649462046FEF75BFC701C04D05B
:1037A000761C84F845600120EDE7A06C012620B16D
:1037B00041462046FEF778FD06E0606A0028F2D018
:1037C00004F1240000F0C4F90028ECD0002DEAD068
:1037D0002E60E8E72E2E5C4672656552544F535CAE
:1037E00071756575652E63004572726F723A257347
:1037F0002C25640D0A0000002DE9F047904689460B
:10380000040005D14FF4B4621FA124A0FCF792FD7F
:10381000B9F1000F07D1206C28B140F2A1521AA1D2
:103820001EA0FCF787FDFFF745FA5020EFF3118744
:1038300080F31188BFF34F8FBFF36F8FA66BF6B184
:1038400094F9445049462046FEF7F0FB761EA663E5
:10385000681C04D06D1C84F84450012010E02069DD
:103860000028FAD004F1100000F072F90028F4D01A
:10387000B8F1000FF1D00121C8F80010EDE70020E9
:1038800087F31188BDE8F0872E2E5C46726565527D
:10389000544F535C71756575652E63004572726F88
:1038A000723A25732C25640D0A00000070B50D4690
:1038B000040005D140F6CB3214A119A0FCF73AFD63
:1038C0002DB940F6CC3211A115A0FCF733FDFFF75E
:1038D00025F9174AD06829684B1C0FD02368126A53
:1038E000934202D0626882420AD96268801A884292
:1038F00006D2081A28602046FFF792FB002400E059
:103900000124FFF747F9204670BD00002E2E5C46CB
:1039100072656552544F535C7461736B732E630010
:103920004572726F723A25732C25640D0A000000EF
:10393000780000202DE9FF5F8346DDE90E87994678
:1039400016468A469000FEF7B1FE05001AD06420A4
:10395000FEF7ACFE040012D025630021CDE9024140
:10396000CDE900874B46324651465846FEF7ECFB00
:103970002046FEF7A1FA012004B0BDE8F09F2846DA
:10398000FFF73AF94FF0FF30F6E7000005484169CC
:1039900019B1006B18B10020704701207047022058
:1039A00070470000780000200148C06870470000A0
:1039B000780000202DE9F0412D4F0026386B40B1F2
:1039C000B869401CB861F86900B101263046BDE80D
:1039D000F081FD686D1CFD6011D1F86B006828B1A5
:1039E00040F6D91223A128A0FCF7A4FCF86B396C8F
:1039F000F9633864386A401C3862FEF77BFDB86AA8
:103A0000DFF89480854209D3F86B006880B1F86BC9
:103A1000C068C468606885420DD2B8623868C06A00
:103A200000EB800158F821000128CCD90126CAE713
:103A30004FF0FF30F1E7201DFEF7E6FFA06A18B156
:103A400004F11800FEF7E0FFE06A01213A698140C5
:103A50001143396100EB800108EB8100211DFFF764
:103A600051F8E06A3968C96A8842CDD30126CBE7AC
:103A7000780000202E2E5C4672656552544F535CD0
:103A80007461736B732E63004572726F723A2573A3
:103A90002C25640D0A0000008000012070B5040090
:103AA0004FF000063CD01F4D2868844205D040F6F8
:103AB000C7621DA121A0FCF73DFC606D28B940F64E
:103AC000C96219A11DA0FCF735FC606D401E606540
:103AD000226DE16A914223D010BB201DFEF794FFB6
:103AE0001A49012250B9E06A00EB800351F82330F3
:103AF00023B92B6902FA00F083432B61206DE06249
:103B0000C0F12000A061E06A2B6982401A432A615B
:103B100000EB800001EB8000211DFEF7F3FF012682
:103B2000304670BD780000202E2E5C4672656552CE
:103B3000544F535C7461736B732E63004572726FE4
:103B4000723A25732C25640D0A00000080000120C4
:103B50002DE9F041C068C4682CB940F6613216A165
:103B60001AA0FCF7E7FB04F118000746FEF74CFF2C
:103B70001A4D286B012660B139461948FEF7C2FF7D
:103B8000E06A2968C96A884213D90120EE61BDE85C
:103B9000F081201DFEF738FFE06A2A6906FA00F17D
:103BA000114329610F4900EB800001EB8000211DCA
:103BB000E4E70020EBE700002E2E5C4672656552BC
:103BC000544F535C7461736B732E63004572726F54
:103BD000723A25732C25640D0A000000780000203D
:103BE00028030120800001202DE9F0472B4D0024FF
:103BF0002746286B28B94FF4FD6229A12DA0FCF7B8
:103C000099FBFEF78BFF286B401E2863286BE8BBEF
:103C1000A8682C490126C8B3A1F52A798846D8F8A6
:103C20000010E9B1D8F80C00C46804F11800FEF7E0
:103C3000EBFE201DFEF7E8FEE06A2A6906FA00F1B5
:103C40001143296100EB800109EB8100211DFEF782
:103C500059FFE06A2968C96A8842E0D3EE61DEE76D
:103C60000CB1FEF747FCAC693CB1FFF7A3FE00B115
:103C7000EE61641EF9D10020A861E86930B11249F3
:103C8000012738070860BFF34F8F00E001E0BFF362
:103C90006F8FFEF77FFF3846BDE8F0877800002081
:103CA0002E2E5C4672656552544F535C7461736B83
:103CB000732E63004572726F723A25732C25640D62
:103CC0000A0000002803012004ED00E02DE9F04780
:103CD0000746994616460D462C20DDF820A0FEF733
:103CE000E5FC040014D0B8464F46D1462DB94FF438
:103CF000C67209A10EA0FCF71DFBFEF745F904F101
:103D00001801C4F8008081E8E002201DFEF7DFFE04
:103D10002046BDE8F08700002E2E5C467265655295
:103D2000544F535C74696D6572732E63000000001C
:103D30004572726F723A25732C25640D0A000000DB
:103D40001CB50024FEF720F90C48006868B10B4947
:103D50001F20091DCDE9000100234FF4827208A144
:103D60000948FFF7E7FD040005D140F2331207A12F
:103D70000CA0FCF7DFFA20461CBD0000BC000020B0
:103D8000546D7220537663000D2600082E2E5C467B
:103D900072656552544F535C74696D6572732E631E
:103DA000000000004572726F723A25732C25640D75
:103DB0000A0000002DE9FF47DDF830A09946904643
:103DC0000D4606004FF0000705D14FF4D37212A143
:103DD00017A0FCF7AFFA1A4C206880B1CDE9005863
:103DE0000296062D11DAFFF7D1FD02284FF00003ED
:103DF00009D0002269462068FFF7CAFB074604B0D5
:103E00003846BDE8F0875246F4E700234A46694643
:103E1000FFF782FCF2E700002E2E5C4672656552C9
:103E2000544F535C74696D6572732E63000000001B
:103E30004572726F723A25732C25640D0A000000DA
:103E4000BC0000204FF04070E1EE100A7047000007
:103E500080070000007800008007000020000000BC
:103E6000200000002000000000F0000000000F0013
:103E700000F00000943E000800000020F400000064
:103E8000C4010008883F0008F4000020FC5801002D
:103E9000E001000800000000000000000000000039
:103EA000000000000000000000000000007A030A8B
:103EB00000000000000000000102030406070809DA
:103EC00000000000000000000000000001000000F1
:103ED00000000000000000000000000001020304D8
:103EE0000102030406070809051D0008CD1D00088E
:103EF00040010020000000680000001040F1002098
:103F000000000F6800F0001000000000000000003A
:103F100000000000000000000000000000000000A1
:103F20000000000000000000000000000000000091
:103F30000000000000000000000000000000000081
:103F40000000000000000000000000000000000071
:103F50000000000000000000000000000000000061
:103F60000000000000000000AAAAAAAA00000000A9
:103F70000000000000000000000000000000000041
:083F8000000000000000000039
:040000050800018965
:00000001FF
